S3250800000060100020B9010008C90F0008530B0008C50F000899050008B519000800000000E2
S32508000020000000000000000000000000CB010008E905000800000000CF0100088116000871
S32508000040D3010008D3010008D3010008D3010008D3010008D3010008D3010008D3010008B2
S32508000060D3010008D3010008D3010008D3010008D3010008D3010008D3010008D301000892
S32508000080D3010008D3010008D3010008D3010008D3010008D3010008D3010008D301000872
S325080000a0D3010008D3010008D3010008D3010008D3010008D3010008D3010008D301000852
S325080000c0D3010008D3010008D3010008D3010008D3010008D3010008D3010008D301000832
S325080000e0D3010008D3010008D301000800F002F800F043F80AA090E8000C82448344AAF1F3
S325080001000107DA4501D100F038F8AFF2090EBAE80F0013F0010F18BFFB1A43F001031847BA
S325080001201C1F00003C1F0000103A24BF78C878C1FAD8520724BF30C830C144BF04680C60A3
S32508000140704700000023002400250026103A28BF78C1FBD8520728BF30C148BF0B607047B1
S325080001601FB500F08DF904000020002101F050FF401C60601FBD10B510BD00F05CF911467C
S32508000180FFF7EEFF01F0AEFE00F08CF903B4FFF7F2FF03BC00F0D0F9EFF30980704780F3B1
S325080001a009887047EFF30880704780F30888704740BA7047C0BA704709488047094800477C
S325080001c0FEE7FEE7FEE7FEE7FEE7FEE7FEE7FEE7FEE7FEE704480549054A064B704700002E
S325080001e0ED160008ED000008600A002060100020600C0020600C002070B5064600F052F814
S325080002000468054630460A22002100F04FF82C6070BD032A40F2308010F0030C00F01580C3
S3250800022011F8013BBCF1020F624498BF11F801CB00F8013B38BF11F8013BA2F1040298BF7B
S3250800024000F801CB38BF00F8013B11F0030300F06580083AC0F0088051F8043B083A51F838
S3250800026004CBA0E80810F5E7121D5CBF51F8043B40F8043BAFF30080D20724BF11F8013BB9
S3250800028011F801CB48BF11F8012B24BF00F8013B00F801CB48BF00F8012B70477047704714
S325080002a07047000000487047FC0900202DE9F04791460F4680460446002614F8015B2DB160
S325080002c000F062F80068405DC007F6D12B2D02D02D2D18D0641E4A463946204600F05CF88C
S325080002e027B13968A14201D1C7F800804FF0020471050BD54042002803DDFFF7D3FF046032
S32508000300A007BDE8F08746F48066E4E70028F8DAFFF7C8FF04606FF00040F2E710B5203A6F
S32508000320C0F00B80B1E81850203AA0E81850B1E81850A0E81850BFF4F5AF5FEA027C24BF37
S32508000340B1E81850A0E8185044BF18C918C0BDE810405FEA827C24BF51F8043B40F8043BC4
S3250800036008BF7047D20728BF31F8023B48BF11F8012B28BF20F8023B48BF00F8012B704771
S3250800038000487047FC09002010B500F079F8001D10BD00BF7D1C00002DE9F05F824615463B
S325080003a08B4600270AF10104B9460078302801D09DB113E014F8010B0127782803D0582823
S325080003c001D045B10AE00DB1102D07D1002714F8010B102502E0082500E00A250026B046DD
S325080003e00EE005FB080005FB06F101271FFA80F801EB1046B6F5803F00D3B94614F8010BB3
S32508000400294600F041F80028EBDABBF1000F05D00FB1641E00E05446CBF80040B9F1000F41
S3250800042006D0FFF73FFF02210160C81EBDE8F09F48EA0640FAE77546FFF7A2FFAE46050062
S325080004406946534620F00700854618B020B5FFF7C1FEBDE820404FF000064FF000074FF043
S3250800046000084FF0000B21F00701AC46ACE8C009ACE8C009ACE8C009ACE8C0098D46704713
S32508000480004870471C0A00203A2800D2303820F02002412A01D3A2F13700884201D34FF055
S325080004a0FF30704710B50446AFF300802046BDE81040FFF76BBE00004FF0013C50F8042BAA
S325080004c051F8043B9A4221D1A2EB0C03934313EACC1317D150F8042B51F8043B9A4215D1C1
S325080004e0A2EB0C03934313EACC130BD150F8042B51F8043B9A4209D1A2EB0C03934313EAA0
S32508000500CC13DBD04FF00000704700BFD01A01BAB1FA81F101F0180122FA01F0CB40C1F1F8
S325080005202001DBB2C0B2C01A2CFA01F3D11A914311EAC311E6D1704701491820ABBEFEE7CD
S32508000540260002007047000010B5022006490880032088701020C870044800F010FA022104
S32508000560024800F0DFFA10BD00000020000C014010B5012006490880032088701020C870E0
S32508000580044800F0FCF90121024800F0CBFA10BD00000020000C014000BFFEE7F0B505462D
S325080005a00E460024AF1905E015F8011BA0B201F0E8F90446BD42F7D3A0B2002101F0E1F96A
S325080005c004462046002101F0DCF904462046F0BD21B1026842F00102026004E002684FF6B3
S325080005e0FE731A40026070477047014606E04FF4FA5200E0521E002AFCDC491E0029F6DCE2
S32508000600704700007FB505460E462AA207CA01AB07C3002400200090294A3146284601F012
S32508000620F7F904462DB9002C03DC4FF4E03000F06DFB002C15DD00F08EFA0020009001226D
S325080006406946204800F002FF00201F494871012C2EDD214601A801F0AFF901201A49487125
S3250800066026E0601C18B902201749487120E0A01C18B90320144948711AE0E01C18B904202D
S325080006801149487114E0201D18B905200E4948710EE0601D18B906200B49487108E0A01DEE
S325080006a018B907200849487102E00820064948717FBD00002020202020202020202000009C
S325080006c064000020F0FF01081800002010B5402006490880032088701020C870044800F09D
S325080006e04EF94021024800F01FFA10BD00000020001001400149C860704700000020024028
S3250800070030B5A525042400F08FF800B100254FF4302000F021F90446042C3AD11E481F49B7
S3250800072088601F4888600846006940F0200008610846006940F0400008614FF4302000F0F1
S325080007400BF90446042C1BD11448006941F6DF710840124908610846006940F01000086169
S3250800076010480580E00200F0F7F80446052C10D00A48006941F6EF7108400849086108E036
S32508000780052C06D00548006941F6EF71084003490861204630BD0000230167450020024075
S325080007a0AB89EFCD00F8FF1F30B5044604254FF4302000F0D1F80546042D17D10C48006960
S325080007c040F002000A49086108464461006940F0400008614FF4302000F0BEF80546044818
S325080007e0006941F6FD71084001490861284630BD0020024004200B49C96801F0010109B1CF
S3250800080001200EE00749C96801F0040109B1022007E00449C96801F0100109B1032000E044
S32508000820042070470020024000200449C96901F0020109B1012000E00020704700200240E6
S325080008400148006A70470000002002400348006940F080000149086170470000002002408E
S325080008600549096821F01001034A11601146096801431160704700000020024070B50446C6
S325080008800D460426F00200F067F80646042E11D10948006940F00100074908612580F002F1
S325080008a000F05AF806460448006941F6FE71084001490861304670BD0020024078B50646C8
S325080008c00C46042500200090E80200F045F80546042D24D11348006940F00100114908619F
S325080008e03480E80200F038F80546042D10D1B01C0090200C00990880E80200F02DF80546DC
S325080009000848006941F6FE7108400649086106E00448006941F6FE710840024908612846BF
S3250800092078BD00000020024001460020034A106800F03800084310607047000000200240EA
S325080009400248034948600348486070472301674500200240AB89EFCD00B502460423FFF765
S3250800096049FF034603E0FFF745FF0346521E012B01D1002AF7D102B90523184600BD2DE9FE
S32508000980F041024600250026002000230024002791F803C00CF00F0591F803C00CF0100C37
S325080009a0BCF1000F03D091F802C04CEA050591F800C0BCF1000F31D0146800202BE04FF023
S325080009c0010C0CFA00F3B1F800C00CEA03069E4220D183004FF00F0C0CFA03F7BC4305FAEF
S325080009e003FC4CEA040491F803C0BCF1280F06D14FF0010C0CFA00FCC2F814C00AE091F856
S32508000a0003C0BCF1480F05D14FF0010C0CFA00FCC2F810C0401C0828D1D31460B1F800C046
S32508000a20BCF1FF0F34DD546800202EE000F1080C4FF0010808FA0CF3B1F800C00CEA03063C
S32508000a409E4221D183004FF00F0C0CFA03F7BC4305FA03FC4CEA040491F803C0BCF1280F6E
S32508000a6005D100F1080C08FA0CF8C2F8148091F803C0BCF1480F07D100F1080C4FF00108C4
S32508000a8008FA0CF8C2F81080401C0828CED35460BDE8F081F0B50A4600230024002100257F
S32508000aa000F00046B6F1004F02D11D4EF16901E01B4E7168C0F3034583B200F44016B6F51C
S32508000ac0401F08D121F07061154E766826F07066134F7E6012E000F48016B6F5801F06D1E4
S32508000ae0032606FA05F4A14341F0706106E0460D360103FA06F6B14341F0706122B1460D5B
S32508000b00360103FA06F6314300F00046B6F1004F02D1034EF16101E0014E7160F0BD0000D3
S32508000b2000000140416170470161704710B501214FF4FE7000F0F4FAFFF71AFDFFF704FD7A
S32508000b40FFF7C4FD00F01EFE00F002FA00F024FA10BD00BFFEE770B50025002404250120A1
S32508000b60A840401EC443FFF76BFE2040A04201D0FFF7C6FD70BD00002DE9FF4706460D46C7
S32508000b804FF0000858A103C9CDE9020158A103C9CDE90001C1462878052873D2DFE800F036
S32508000ba0030A305A6700012028700621304601F091F993E000BF4FF400124F49304601F0D2
S32508000bc0E5F8B0B94C4800784D2816D101240AE0494801194FF40012304601F0D7F800B163
S32508000be003E0601CC4B2052CF2DB00BF0220287004E042A1304600F01EF9DCE700BF6DE088
S32508000c00002413E03C48005D02A9095D884201D1781CC7B23848005D1DF80410884203D170
S32508000c2008F1010000F0FF08601CC4B2052CE9DB052F06D1032028701921304601F04AF924
S32508000c4007E0B8F1050F02D10420287001E00120287043E031460020FFF7D4FC0020287081
S32508000c6001222849284800F0DDFB00F027FA00BFB9F1000F07D0B9F1010F0FD0B9F1020FE6
S32508000c8028D121E029E04FF0010900201D49C870087140F6B830FFF7A8FC1CE01948C07876
S32508000ca0012803D017480079012806D14FF002090621304601F00EF905E01521304601F0F1
S32508000cc009F900F0FBF906E031460120FFF79AFC00F0F4F900BF00BFCAE700BF00BF00F09C
S32508000ce02BF9BDE8FF8700004D414A4F520000004D494E4F52000000340000205550475207
S32508000d000000000018000020F0FF01082DE9F0410446002500260427C4F3090020B10120DC
S32508000d2000EB942086B201E0C4F38F26FFF708FE3420FFF7DFFC002507E0094901EB852071
S32508000d40FFF732FD0746681C85B2B54201DA042FF3D00448FFF728FDFFF778FDBDE8F081A8
S32508000d600040000800FC01087FB505460C4600940020ADF80400ADF80600ADF80800ADF8ED
S32508000d800C000C20ADF80A006946284600F084FD002240F22551284600F059FD01212846C2
S32508000da000F0DAFC7FBD000038B5012000900E4800680E490840B0F1005F0BD10A4844684E
S32508000dc00B48046008490868FFF7EFF908480068804708E0FFF7BFFE012000900122694612
S32508000de0044800F033FB38BD004000080000FE2F30000020F0FF010870B505460C462021C6
S32508000e00284600F017FD28B1284600F0B1FD2070012070BD0020FCE770B504460D4629465B
S32508000e20204600F0AAFD00BF8021204600F002FD0028F9D070BD70B505460C4604E0217895
S32508000e402846FFF7E9FF641C20780028F7D170BD70B504460E4EFFF773FD3420FFF74AFC42
S32508000e6000250FE0042202FB05602168FFF726FD56F825002168884202D04FF0FF3070BDF3
S32508000e80241D6D1C042DEDD3FFF7E0FC0020F6E700FC010870B504460D46FFF751FD34205B
S32508000ea0FFF728FC00202049086034E01F4821680068FFF703FD1E49206808601B48006895
S32508000ec000681C4908601948006800682168884216D03420FFF70EFC14480068FFF764FCF7
S32508000ee01348016811480068FFF7E8FC0F48006800680F490968884202D04FF0FF3070BD5E
S32508000f000A480068001D09490860241D06480068001D0549086004480068A842C6D3FFF73B
S32508000f2095FC0020EBE700002000002024000020280000202C00002010B500F001F810BD8D
S32508000f404AF6AA2001490860704700000030004010B50121084600F0E3F801210B48FFF735
S32508000f6099FD02200A490880032088701020C8700848FFF704FD10200549088003208870E5
S32508000f801020C8700348FFF7FAFC10BD00023000000000200008014010B54FF400400749A4
S32508000fa00880032088701020C8700548FFF7E7FC4FF400410248FFF7B7FD10BD000000208D
S32508000fc00008014000BFFEE7704708B54FF4407000F060F805208DF8010025208DF80000F2
S32508000fe000208DF8020001208DF80300684600F019F827208DF8000000208DF80200012050
S325080010008DF80300684600F00DF834208DF8000000208DF8020001208DF80300684600F0D0
S3250800102001F808BD70B5002100230F22C47804B3154C246804F4E064C4F5E064210AC1F154
S325080010400403CA40447804FA03F184781440214309010E4C0678A155047804F01F0501247E
S32508001060AC4005786D11AD0005F1E025C5F8004109E0047804F01F050124AC40044D067878
S32508001080761145F8264070BD0CED00E000E400E080E100E002490143024A1160704700000A
S325080010a00000FA050CED00E0024A0A400243024B1A60704780FFFF1F08ED00E006480068C9
S325080010c000F4E06005490843001D03490860BFF34F8F00BFFEE700000CED00E00000FA0558
S325080010e029B1064A52690243044B5A6104E0034A52698243014B5A617047000000100240ED
S3250800110029B1064AD2690243044BDA6104E0034AD2698243014BDA617047000000100240CC
S3250800112029B1064A92690243044B9A6104E0034A92698243014B9A617047000000100240AC
S325080011402DE9F04100210022002500230026002400278C46DFF86081D8F8048008F00C015B
S3250800116021B1042907D0082959D109E0DFF84C81C0F8008058E0DFF84481C0F8008053E02C
S32508001180DFF83481D8F8048008F47012DFF82881D8F8048008F48035920C0D2A01D0921C0A
S325080011a000E0062235B9DFF8188102FB08F8C0F8008033E0DFF80081D8F82C8008F48036ED
S325080011c0DFF8F480D8F82C8008F00F0808F1010446B9DFF8E880B8FBF4F808FB02F8C0F89B
S325080011e000801BE0DFF8D080D8F82C80C8F3031808F10107DFF8C080D8F82C80C8F3032873
S3250800120008F1020CDFF8B480B8FBF7F808FB0CF8B8FBF4F808FB02F8C0F8008004E0DFF876
S325080012209C80C0F8008000BF00BFDFF88C80D8F8048008F0F0010909DFF8888018F801307C
S32508001240D0F8008028FA03F8C0F80480DFF86880D8F8048008F4E061090ADFF8688018F8AD
S325080012600130D0F8048028FA03F8C0F80880DFF84880D8F8048008F46051C90ADFF8448078
S3250800128018F80130D0F8048028FA03F8C0F80C80DFF82480D8F8048008F44041890BDFF89B
S325080012a0288018F80130D0F80C80B8FBF3F8C0F81080BDE8F08100000010024000127A0009
S325080012c000093D00040000201400002010B501460022002300204A11012A02D1094C2368B8
S325080012e006E0022A02D1074C236A01E0054C636A01F01F02012494401C400CB1012000E0F7
S32508001300002010BD001002400248406800F00C00704700000010024001460020034A50681D
S3250800132020F0F0000843506070470000001002401149096821F480310F4A11601146096878
S3250800134021F480211160B0F5803F03D0B0F5802F0ED106E00849096841F48031064A11609F
S3250800136007E00549096841F4A021034A116000E000BF00BF70470000001002400146002037
S32508001380034A506820F4E06008435060704700000010024001460020034A506820F46050B2
S325080013a040EAC100506070470010024001490866704700000000424202460020044B586811
S325080013c020F4741042EA01031843014B586070470010024001460020034A506820F0030050
S325080013e008435060704700000010024038B5002000900024002500BF3120FFF767FF05463E
S325080014000098401C00900098B0F5A06F01D0002DF2D03120FFF75AFF08B1012400E00024AC
S32508001420204638BD30B503460C461546002207E0184600F008F824F812009B1C501C82B28C
S32508001440AA42F5DB30BD0146088870472DE9F05F80468A461746B8F1006F02D334488045C1
S3250800146001D3BDE8F09FFFF76BFA3420FFF742F9A8F1006B4FEA9B25CBF34809C9F5007438
S32508001480A74200DC3C464DE04FF0006101EB85208A142849FFF7C6FF00260BE009EB0600C4
S325080014a0244931F810004FF6FF71884200D003E0701C86B2A642F1DB00BFA6421BDA4FF0F3
S325080014c0006101EB8520FFF76FF9002608E03AF8160006EB0901174A22F81100701C86B20D
S325080014e0A642F4DB4FF0006101EB85208A14114900F022F804E022465146404600F01CF887
S32508001500A74200D10FE06D1C4FF000090AEB440AA044381B87B2B7F5007F02DD4FF40074CF
S3250800152000E03C46B0E700BFFFF790F900BF98E700000208640400202DE9F04105460E46B0
S325080015401746002407E036F814102846FFF796F9AD1C601C84B2BC42F5DBBDE8F08110B5AC
S3250800156000F002F810BD00000CB50020019000903F48006840F480303D49086000BF3C48A0
S32508001580006800F4003000900198401C0190009818B90198B0F5A06FF1D13548006800F44A
S325080015a0003010B10120009001E000200090009801285CD12F48006840F010002D490860FF
S325080015c00846006820F0030008600846006840F0020008602648406825494860084640685A
S325080015e048600846406840F4806048600846C06A214908401E49C8620846C06A1F4908439D
S325080016001B49C8620846006840F08060086000BF1748006800F000600028F9D01448406835
S3250800162020F47C10124948600846406840F4E81048600846006840F08070086000BF0C48DE
S32508001640006800F000700028F9D00948406820F00300074948600846406840F002004860EF
S3250800166000BF0348406800F00C000828F9D10CBD001002400020024000F0FEFF140801002D
S32508001680704710B54FF000610846FFF70DFD4FF48030FFF74DFEFFF7A9FE0446012C24D195
S325080016a01020FFF7DDF80220FFF73EF90020FFF733FE0020FFF76EFE0020FFF75FFE4FF453
S325080016c0E0112004FFF778FE0120FFF76FFE00BF3920FFF7FBFD0028FAD00220FFF77AFE6F
S325080016e000BFFFF711FE0828FBD110BD10B51648006840F00100144908600846406813497C
S3250800170008401149486008460068114908400E4908600846006820F4802008600846406892
S3250800172020F4FE0048600846006820F0A05008604FF47F0088600020C862FFF710FF4FF08B
S3250800174000600449086010BD001002400000FFF0FFFFF6FE08ED00E021B1828942F400522C
S32508001760828104E082894DF6FF731A40828170471AB1838A0B43838202E0838A8B438382B3
S325080017807047000010B54FF4007026490880032088701820C8702448FFF7F1F84FF480601C
S325080017a0204908800420C8701F48FFF7E8F804201C490880032088701820C8701A48FFF79D
S325080017c0DEF80820174908800420C8701648FFF7D6F84FF48060134908800320887018203D
S325080017e0C8701248FFF7CBF84FF400600D4908800420C8700D48FFF7C2F84FF48060094939
S325080018000880032088701820C8700948FFF7B7F84FF40060034908800420C8700448FFF79C
S32508001820AEF810BD0000002000080140000C01400010014002460020B1F5007F00D100BF03
S3250800184013880B400BB1012000E000207047F0B50346002400260025002040F66A17B942D1
S3250800186000D100BF1846C1F3421401F01F06012707FA06F5012C01D10C3004E0022C01D109
S32508001880103000E014301AB107682F43076002E00768AF430760F0BD2DE9F04786B005469E
S325080018a00E460024A24600BFA1460027B08900B100BF2F462C8A4CF6FF700440F088044365
S325080018c02C82AC894EF6F3100440B08831890843718908430443AC81AC8A4FF6FF40044098
S325080018e0B0890443AC8201A8FFF72AFC1F48874202D1DDF810A001E0DDF80CA0A88900F458
S32508001900004040B10AEBCA0000EB0A1031684900B0FBF1F807E00AEBCA0000EB0A1031680A
S325080019208900B0FBF1F86420B8FBF0F004012009642101FB1089A88900F4004040B1322075
S3250800194000EBC900B0FBF1F000F00700044308E0322000EB09106421B0FBF1F000F00F00AD
S3250800196004432C8106B0BDE8F08700000038014001468888C0F308007047C1F30802828091
S32508001980704710B503460C46194644F4807200BF4900520002F4807000B1491C01F480309E
S325080019a010B141F22100414002F480300028EFD088B210BD00BFFEE7F0B5144A00250024FF
S325080019c0002320E0B1FBF2F6303606F0FF0C2E466D1C00F806C0B1FBF2F602FB16110A2638
S325080019e0B2FBF6F26E1E865D302E01D1012600E000260CB9012700E000273E400EB1002522
S32508001a0000E0641C5B1C0A2BDCD3F0BD00CA9A3B2DE9F04F89B004460F4615464FF0000BDF
S32508001a20002007900690059004900390029081468046089000268246C448056080E14FF4D5
S32508001a400010C34BC34A39460090204600F0B2F90690FFF771FA069810B1012874D143E155
S32508001a604FF00008012C08D1029830B1B8480068002802DD0520FEF7B8FDB5480068B0F14C
S32508001a80FF3F01D0E0B907E01821384600F022FA002009B0BDE8F08F0621384600F01AFA40
S32508001aa04FF0010A00200290AB48006810B90120A9490860012C02D10520FEF796FD11E1DE
S32508001ac0A4484078F1B2884206D01521384600F001FA6FF00400DCE79D480068B0F5806F6B
S32508001ae00CDB4FF4806007909A4890F80404994991F8031440EA012005900AE08020079042
S32508001b00944890F88400934991F8831040EA012005909048C01C0799FEF740FD834605980B
S32508001b2083450AD01821384600F0D4F91821384600F0D0F96FF00300ABE7002E7ED124B9C3
S32508001b4086A08949086005E0D9E0012C02D187A0854908607F48C078002870D000208649C6
S32508001b6008607C48C01C8549086027E07E480068007882490968097888420AD01821384654
S32508001b8000F0A8F91821384600F0A4F96FF005007FE77A4800680178774802680068401C08
S32508001ba0754B18607648815474480068401C734908606D480068401C6B4908606F480068F4
S32508001bc0007818B16C480068FF28CFD900216A4802680068401C684B1860694881540020F9
S32508001be01946086065480068401C644908600FE0624800680178604802680068401C5E4B91
S32508001c001860604881545D480068401C5B4908605A4800680078202803D057480068102870
S32508001c20E6D30021544802680068401C524B186054488154FEF7E0FA474901E02AE021E021
S32508001c40086008460068B0F5003F0ADB1821384600F040F91821384600F03CF94FF0FF3065
S32508001c6017E734B93C480068FFF750F83A48FFF7EFF80621384600F02DF94321384600F055
S32508001c8029F92AE00621384600F024F94FF0010AD14627E004BB2E482E49C91C02682B4882
S32508001ca00068FEF7B6FA384805602948016836480068FFF7EFF850B11821384600F00AF9DC
S32508001cc01821384600F006F96FF00100E1E60621384600F0FFF800E000BF701C86B2012019
S32508001ce0089000BF00BF23E01821384600F0F2F81821384600F0EEF86FF00200C9E60898EF
S32508001d00002803DD08F1010000F0FF08B8F1050F09DD1821384600F0DDF81821384600F0F6
S32508001d20D9F80020B5E64321384600F0D3F800BF00BFBAF1000F02D1B9F1000F00D000E0F8
S32508001d407DE600BF04480068A3E60000400000204C00002064090020500000204D414A4F26
S32508001d60522E62696E000000440000204D494E4F522E62696E000000540000203C0000207C
S32508001d8064080020E90900205800002070B505460E46144607E031462846FFF72DF80128F1
S32508001da001D1002070BD201EA4F10104F3D1401EF8E700002DE9F84F8046894614461D466E
S32508001dc0DDF828B04FF0000A002028605A4669464846FFF7DBFF18B14FF0FF30BDE8F88F47
S32508001de09DF80000182813D006DC012809D0022809D0042821D109E041281BD061281CD165
S32508001e0019E080271CE04FF4806719E00020E5E75A4669464846FFF7B9FF40B99DF80000F0
S32508001e20182804D14FF0FF3028600020D6E74FF0FF30D3E700BF0120D0E74FF0FF30CDE7CB
S32508001e4000BF9DF80000207001262FE0A1195A464846FFF79BFF10B14FF0FF30BEE7B8F165
S32508001e60000F02D14FF0320A04E0B8F1010F01D14FF0640A15480078401CC0B21349087064
S32508001e80504504D102211248FEF74EFE0CE04FEA4A000E490978884206D102210C48FEF7B8
S32508001ea041FE002009490870701C86B2781D8642CCDB6178A07880F0FF00814202D04FF0EF
S32508001ec0FF308BE72F60002088E70000600000200008014070B504460D4629462046FEF7E0
S32508001ee09BFF70BD4FF44070FFF7D4F8FFF7C9FBFEF71CFE00F030F801211248FEF712FEF6
S32508001f0002211148FEF710FE10210F48FEF70AFE01220E490E48FFF785FA11E00B4800889E
S32508001f20012806D100BF0949891C0A48FEF724FE06E072B6FEF738FF012004490880F2E76B
S32508001f40ECE70000000C01400008014018000020F0FF01080044004010B5FFF736F801214B
S32508001f604804FFF7CDF84FF416512348FEF7FCFE00212248FFF7F0FB00212148FFF7ECFB75
S32508001f8000212048FEF724FB002240F224411C48FFF75DFC002240211948FFF7E9FB00214B
S32508001fa00120FFF79DF8002116482838FEF710FB002240F224411448FFF749FC00224021B5
S32508001fc01148FFF7D5FB00210120FFF789F800210E48FEF7FDFA002240F224410748FFF7BA
S32508001fe036FC002240210548FFF7C2FB00210220FFF776F810BD000000440040004C00409A
S325080020000038014058000240004800403004024010B500290AD00878002807D00548784451
S32508002020FEF74AFA002801D0002010BD0248784410BD00003E000000360000006C21000897
S32508002040000000206400000028010008D021000864000020FC0F00004401000810010000D7
S3250800206043000000F8FFFFFF00404040404040404040414141414140404040404040404055
S325080020804040404040404040400502020202020202020202020202020220202020202020EF
S325080020a0202020020202020202029090909090901010101010101010101010101010101044
S325080020c01010101002020202020288888888888808080808080808080808080808080808F6
S325080020e008080808020202024000000000000000000000000000000000000000000000006A
S325080021000000000000000000000000000000000000000000000000000000000000000000B1
S32508002120000000000000000000000000000000000000000000000000000000000000000091
S32508002140000000000000000000000000000000000000000000000000000000000000000071
S3250800216000000000000000000000000000000000000000000102030401020304060708091F
S325080021800204060800000000000000000000000000400008000000000000000000000000D5
S325080021a0000000000000000000000000000000000000000000000000000000000000000011
S325080021c000000000000000000000000000000000FFFFFFFFFFFFFFFFFFFFFFFFFFFFFFFF01
S325080021e0FFFFFFFFFFFFFFFFFFFFFFFFFFFFFFFFFFFFFFFFFFFFFFFFFFFFFFFFFFFFFFFFF1
S32508002200FFFFFFFFFFFFFFFFFFFFFFFFFFFFFFFFFFFFFFFFFFFFFFFFFFFFFFFFFFFFFFFFD0
S32508002220FFFFFFFFFFFFFFFFFFFFFFFFFFFFFFFFFFFFFFFFFFFFFFFFFFFFFFFFFFFFFFFFB0
S32508002240FFFFFFFFFFFFFFFFFFFFFFFFFFFFFFFFFFFFFFFFFFFFFFFFFFFFFFFFFFFFFFFF90
S32508004000C408002021D7000865D70008E942000865D7000865D7000865D700080000000063
S3250800402000000000000000000000000065D7000865D70008000000006F420008F1DA00085E
S3250800404065D7000865D7000865D7000865D7000865D7000865D7000839DF00084DDF000866
S3250800406061DF000875DF000889DF000865D7000865D7000865D7000865D7000865D70008CA
S3250800408065D7000865D7000865D7000865D7000865D7000865D7000865D700089DDF0008B2
S325080040a065D7000865D7000865D7000865D7000865D7000865D7000865D7000865D70008D2
S325080040c065D7000865D7000865D7000865D7000865D700082DEB000845EB00085DEB0008D6
S325080040e0CDDF000865D7000865D70008000000000000000000000000000000000000000076
S32508004100000000000000000065D7000865D7000875EB00088DEB000865D7000865D7000899
S3250800412065D7000865D7000865D7000865D7000865D70008000000000000000065D70008D9
S3250800414065D7000865D7000865D7000865D700080000000000000000000000000000000041
S32508004160000000000000000000000000000000000000000000000000000000000000000031
S32508004180000000000000000000000000000000000000000000000000000000000000000011
S325080041a00000000000000000000000000000000000000000000000000000000000000000F1
S325080041c00000000000000000000000000000000000000000000000000000000000000000D1
S325080041e05FF8E0F110B5054C237833B9044B13B10448AFF300800123237010BDC8080020F7
S3250800420000000000DC710108084B10B51BB108490848AFF300800848036803B910BD074BFD
S32508004220002BFBD0BDE81040184700BF00000000CC080020DC710108C40400200000000035
S32508004240EFF3108072B6704780F310887047354A1368012B04D04FF001031360324A1060A1
S32508004260324A116032484FF0805101607047EFF3108272B62B48016891B14FF00001016046
S325080042802948016829B1EFF3098121E9F00F00680160264909680968B1E8F00F81F3098830
S325080042a082F310884EF0040E7047204908601E494FF0000008601B494FF0010008601D488C
S325080042c01D49D0F8002041EA0201016018484FF08051016019480068006800BF80F308882F
S325080042e061B662B6704700BFEFF308801EF0040F01D0EFF3098020E9F00F40F804ED1EF005
S32508004300040F02D080F3098801E080F3088800B503F02CFA5DF804EB4EF0040E7047EFF3C7
S3250800432005807047FC250020F8250020F425002004ED00E020ED00E00000FFFF08ED00E0EB
S3250800434010F8012B11F8013B012A28BF9A42F7D0D01A7047034613F8012B002AFBD1181AD8
S325080043600138704781F0004102E000BF83F0004330B54FEA41044FEA430594EA050F08BFF9
S3250800438090EA020F1FBF54EA000C55EA020C7FEA645C7FEA655C00F0E2804FEA5454D4EBCA
S325080043a05555B8BF6D420CDD2C4480EA020281EA030382EA000083EA010180EA020281EA33
S325080043c00303362D88BF30BD11F0004F4FEA01314FF4801C4CEA113102D0404261EB41013E
S325080043e013F0004F4FEA03334CEA133302D0524263EB430394EA050F00F0A780A4F1010435
S32508004400D5F1200E0DDB02FA0EFC22FA05F2801841F1000103FA0EF2801843FA05F359416A
S325080044200EE0A5F120050EF1200E012A03FA0EFC28BF4CF0020C43FA05F3C01851EBE37198
S3250800444001F0004507D54FF0000EDCF1000C7EEB00006EEB0101B1F5801F1BD3B1F5001F5A
S325080044600CD349085FEA30004FEA3C0C04F101044FEA445212F5800F80F09A80BCF1004F1F
S3250800448008BF5FEA500C50F1000041EB045141EA050130BD5FEA4C0C404141EB010111F46D
S325080044a0801FA4F10104E9D191F0000F04BF01460020B1FA81F308BF2033A3F10B03B3F1C2
S325080044c020020CDA0C3208DD02F1140CC2F10C0201FA0CF021FA02F10CE002F11402D8BF3E
S325080044e0C2F1200C01FA02F120FA0CFCDCBF41EA0C019040E41AA2BF01EB0451294330BD23
S325080045006FEA04041F3C1CDA0C340EDC04F11404C4F1200220FA04F001FA02F340EA0300A2
S3250800452021FA04F345EA030130BDC4F10C04C4F1200220FA02F001FA04F340EA0300294605
S3250800454030BD21FA04F0294630BD94F0000F83F4801306BF81F480110134013D4EE77FEA7C
S32508004560645C18BF7FEA655C29D094EA050F08BF90EA020F05D054EA000C04BF19461046F8
S3250800458030BD91EA030F1EBF0021002030BD5FEA545C05D14000494128BF41F0004130BDA9
S325080045a014F580043CBF01F5801130BD01F0004545F0FE4141F470014FF0000030BD7FEA0C
S325080045c0645C1ABF194610467FEA655C1CBF0B46024650EA013406BF52EA033591EA030FAC
S325080045e041F4002130BD00BF90F0000F04BF0021704730B54FF4806404F132044FF0000506
S325080046004FF0000150E700BF90F0000F04BF0021704730B54FF4806404F1320410F00045B0
S3250800462048BF40424FF000013EE700BF42004FEAE2014FEA31014FEA02701FBF12F07F43A9
S3250800464093F07F4F81F06051704792F0000F14BF93F07F4F704730B54FF4607401F0004584
S3250800466021F0004120E700BF50EA010208BF704730B54FF000050AE050EA010208BF70478B
S3250800468030B511F0004502D5404261EB41014FF4806404F132045FEA915C3FF4DCAE4FF076
S325080046a003025FEADC0C18BF03325FEADC0C18BF033202EBDC02C2F1200300FA03FC20FAB9
S325080046c002F001FA03FE40EA0E0021FA02F11444C1E600BF70B54FF0FF0C4CF4E06C1CEAD9
S325080046e011541DBF1CEA135594EA0C0F95EA0C0F00F0DEF82C4481EA030621EA4C5123EA6B
S325080047004C5350EA013518BF52EA033541F4801143F4801338D0A0FB02CE4FF00005E1FB0E
S3250800472002E506F00042E0FB03E54FF00006E1FB03569CF0000F18BF4EF0010EA4F1FF04B8
S32508004740B6F5007F64F5407404D25FEA4E0E6D4146EB060642EAC62141EA55514FEAC520AC
S3250800476040EA5E504FEACE2EB4F1FD0C88BFBCF5E06F1ED8BEF1004F08BF5FEA500E50F186
S32508004780000041EB045170BD06F0004646EA010140EA020081EA0301B4EB5C04C2BFD4EB15
S325080047a00C0541EA045170BD41F480114FF0000E013C00F3AB8014F1360FDEBF002001F0C7
S325080047c0004170BDC4F10004203C35DA0C341BDC04F11404C4F1200500FA05F320FA04F01B
S325080047e001FA05F240EA020001F0004221F0004110EBD37021FA04F642EB06015EEA430EE8
S3250800480008BF20EAD37070BDC4F10C04C4F1200500FA04F320FA05F001FA04F240EA02008D
S3250800482001F0004110EBD37041F100015EEA430E08BF20EAD37070BDC4F1200500FA05F222
S325080048404EEA020E20FA04F301FA05F243EA020321FA04F001F0004121FA04F220EA02006F
S3250800486000EBD3705EEA430E08BF20EAD37070BD94F0000F0FD101F00046400041EB01010A
S3250800488011F4801F08BF013CF7D041EA060195F0000F18BF704703F00046520043EB030388
S325080048a013F4801F08BF013DF7D043EA0603704794EA0C0F0CEA135518BF95EA0C0F0CD047
S325080048c050EA410618BF52EA4306D1D181EA030101F000414FF0000070BD50EA410606BFF8
S325080048e01046194652EA430619D094EA0C0F02D150EA013613D195EA0C0F05D152EA0336E1
S325080049001CBF104619460AD181EA030101F0004141F0FE4141F470014FF0000070BD41F0CA
S32508004920FE4141F4780170BD70B54FF0FF0C4CF4E06C1CEA11541DBF1CEA135594EA0C0F06
S3250800494095EA0C0F00F0A7F8A4EB050481EA030E52EA03354FEA013100F088804FEA0333C6
S325080049604FF0805545EA131343EA12634FEA022245EA111545EA10654FEA00260EF000412A
S325080049809D4208BF964244F1FD0404F5407402D25B084FEA3202B61A65EB03055B084FEA40
S325080049a032024FF480104FF4002CB6EB020E75EB030E22BFB61A754640EA0C005B084FEA13
S325080049c03202B6EB020E75EB030E22BFB61A754640EA5C005B084FEA3202B6EB020E75EBA0
S325080049e0030E22BFB61A754640EA9C005B084FEA3202B6EB020E75EB030E22BFB61A754608
S32508004a0040EADC0055EA060E18D04FEA051545EA16754FEA06164FEAC30343EA52734FEABB
S32508004a20C2025FEA1C1CC0D111F4801F0BD141EA00014FF000004FF0004CB6E711F4801FDB
S32508004a4004BF01430020B4F1FD0C88BFBCF5E06F3FF6AFAEB5EB030C04BFB6EB020C5FEA30
S32508004a60500C50F1000041EB045170BD0EF0004E4EEA113114EB5C04C2BFD4EB0C0541EA3C
S32508004a80045170BD41F480114FF0000E013C90E645EA060E8DE60CEA135594EA0C0F08BF4C
S32508004aa095EA0C0F3FF43BAF94EA0C0F0AD150EA01347FF434AF95EA0C0F7FF425AF1046C1
S32508004ac019462CE795EA0C0F06D152EA03353FF4FDAE1046194622E750EA410618BF52EA41
S32508004ae043067FF4C5AE50EA41047FF40DAF52EA43057FF4EBAE12E74FF0FF3C06E000BF23
S32508004b004FF0010C02E000BF4FF0010C4DF804CD4FEA410C7FEA6C5C4FEA430C18BF7FEAB9
S32508004b206C5C1BD001B050EA410C0CBF52EA430C91EA030F02BF90EA020F0020704710F175
S32508004b40000F91EA030F58BF994208BF90422CBFD8176FEAE37040F0010070474FEA410C2C
S32508004b607FEA6C5C02D150EA013C07D14FEA430C7FEA6C5CD6D152EA033CD3D05DF8040BF2
S32508004b80704700BF8446104662468C461946634600E000BF01B5FFF7B7FF002848BF10F1BE
S32508004ba0000F01BD4DF808EDFFF7F4FF0CBF012000205DF808FB00BF4DF808EDFFF7EAFFBB
S32508004bc034BF012000205DF808FB00BF4DF808EDFFF7E0FF94BF012000205DF808FB00BFC2
S32508004be04DF808EDFFF7CEFF94BF012000205DF808FB00BF4DF808EDFFF7C4FF34BF0120F8
S32508004c0000205DF808FB00BF4FEA410212F5001215D211D56FF47873B3EB625212D94FEA29
S32508004c20C12343F0004343EA505311F0004F23FA02F018BF404270474FF00000704750EA9D
S32508004c40013005D111F0004008BF6FF0004070474FF00000704700BF4A0011D212F50012E6
S32508004c6011D20DD56FF47873B3EB62520ED44FEAC12343F0004343EA505323FA02F07047B6
S32508004c804FF00000704750EA013002D14FF0FF3070474FF0000070477BB972B90029BEBFB2
S32508004ca000204FF0004106E008BF00281CBF6FF000414FF0FF3000F009BAADF1080C6DE9CD
S32508004cc004CE002909DB002B1ADB00F089F8DDF804E0DDE9022304B07047404261EB410137
S32508004ce0002B1BDB00F07CF8DDF804E0DDE9022304B0404261EB4101524263EB43037047DA
S32508004d00524263EB430300F06BF8DDF804E0DDE9022304B0404261EB41017047524263EB09
S32508004d20430300F05DF8DDF804E0DDE9022304B0524263EB4303704753B94AB9002908BFA4
S32508004d4000281CBF4FF0FF314FF0FF3000F0BEB9ADF1080C6DE904CE00F042F8DDF804E041
S32508004d60DDE9022304B07047F8B50022002307460E46FFF721FF28B938463146BDE8F84073
S32508004d8000F00AB8384606F1004100F005F8404261EB4101F8BD00BFD0B500220E4B0646E0
S32508004da00F46FFF797FCFFF757FF0446FFF71CFC00220A4BFFF78EFC02460B4630463946DE
S32508004dc0FFF7D4FAFFF748FF2346002242EA000210461946D0BD00BF0000F03D0000F041AC
S32508004de02DE9F04F8C460C460546099E002B4FD18A4217466BD9B2FA82FEBEF1000F0BD0BD
S32508004e00CEF1200520FA05F501FA0EF345EA030C02FA0EF700FA0EF5390CBCFBF1F0BAB20B
S32508004e2001FB10C300FB02F84FEA154C4CEA0344A04509D9E41900F1FF3380F02881A045A4
S32508004e4040F2258102383C44C8EB0404B4FBF1F301FB134C03FB02F2ACB244EA0C418A4272
S32508004e6009D9C91903F1FF3480F00F818A4240F20C81023B39448A1A43EA00400021002E94
S32508004e8063D022FA0EF2002386E80C00BDE8F08F8B4207D9002E56D0002186E81100084605
S32508004ea0BDE8F08FB3FA83F1002940F09380A34202D3824200F2FE80851A64EB03039C466F
S32508004ec00120002E41D086E82010BDE8F08F12B90127B7FBF2F7B7FA87FEBEF1000F36D119
S32508004ee0E41B4FEA17481FFA87F90121B4FBF8F308FB134409FB03F24FEA154C4CEA04444D
S32508004f00A24207D9E41903F1FF3002D2A24200F2D3800346A41AB4FBF8F008FB104809FBA5
S32508004f2000F9ACB244EA0842914507D9D21900F1FF3402D2914500F2BA802046C9EB0202DB
S32508004f4040EA03409BE731463046BDE8F08F07FA0EF7CEF1200C24FA0CF34FEA1748B3FBEF
S32508004f60F8FA1FFA87F908FB1A3520FA0CFC04FA0EF40AFB09FB4CEA040C4FEA1C4242EA12
S32508004f8005439B4500FA0EF50AD9DB190AF1FF3280F08B809B4540F28880AAF1020A3B4420
S32508004fa0CBEB0303B3FBF8F008FB103300FB09F41FFA8CFC4CEA03439C4207D9DB1900F193
S32508004fc0FF326ED29C426CD902383B441C1B40EA0A418BE7C1F1200E8B4022FA0EFC4CEA51
S32508004fe0030C24FA0EF74FEA1C49B7FBF9FA1FFA8CF309FB1A7720FA0EF88C400AFB03F518
S3250800500048EA04044FEA144848EA0747BD4202FA01F200FA01FB09D917EB0C070AF1FF302E
S3250800502041D2BD423FD9AAF1020A67447F1BB7FBF9F509FB157705FB03F3A4B244EA074754
S32508005040BB4208D917EB0C0705F1FF3027D2BB4225D9023D674445EA0A40A0FB0289FF1A94
S325080050604F4545464C4614D329D066B3BBEB050367EB040707FA0EFECB40CF404EEA030308
S3250800508086E888000021BDE8F08F2346F3E61846DAE6B8EB020569EB0C040138E5E7054609
S325080050a0D9E7104692E78246C0E7924678E702383A4443E7084604E7023B3C442AE7C345BC
S325080050c0E7D33C46D1E73146BDE8F08F704700BF014B1868704700BFE408002008B50B4A5D
S325080050e013680133136001F0C3FDC36D013BC3654BB9836DC36590F8483043F0080380F869
S32508005100483001F0E3FB02F0D9F908BDE4080020002816DB10B40D4C84FB0023C117C1EB49
S32508005120A3114FF47A7202FB01F1401A02FB00F202F2E73384FB0324DB17C3EBA4135818CB
S3250800514002E04FF0FF30704710BC7047D34D621000207047002070470020704700207047C9
S3250800516038B5064B064A9A4206D214461D4654F8043B9847AC42FAD338BD00BF9C71010833
S325080051809471010838B5064B064A9A4206D214461D4654F8043B9847AC42FAD338BD00BF1B
S325080051a0CC7101089C71010808B5FFF7EBFF09F089FD08BD10B582B0142301930623009326
S325080051c04FF4006300220849084801F0ABFD044620B9C8220649074800F0CCFE204601F003
S325080051e055FF02B010BD00BFA9510008B0280108C8280108B828010808B5FFF721F808F086
S32508005200DFFA00F097FE02F061FA01F0B7FAFFF7D1FF02F061FA00F0CBF901F039FB002027
S3250800522008BD00BF08B5FFF7E7FF002008BD00BF08B5092101F062FA08BD00BF90B170B581
S32508005240044616460D460846FFF7F2FF68B92A460921204601F02EF96685002084F82E0024
S32508005260A08570BD4FF0FF3070474FF0FF3070BD70B50E46044620B9D5222C492C4800F0A2
S3250800528079FE204601F028FA092804D0D6222749284800F06FFE638D03F010039BB283B957
S325080052a0A36B53B120469847054630B102462146214800F013FE284670BD638D43F0100373
S325080052c06385638D03F008039BB223B1A38D03F008039BB223BBE36B2BB13146204698478A
S325080052e0054638B909E026F4704626F0F006A685002502E010F1060F15D1A38D43F0080303
S32508005300A38594F82E300133DBB284F82E305BB94FF482720549094800F02CFE284670BD33
S325080053206FF0060070BD70BD284670BDDC2801081C2901082C290108C4290108FC29010828
S3250800534010B5044628B94FF48B721649164800F011FE204601F0C0F9092805D040F21712E2
S325080053601049124800F006FE94F82E309BB1013BDBB284F82E308BB9236C3BB1204698479B
S32508005380034620B110F1060F0AD100E000230022A285184610BD4FF0FF3010BD002010BD55
S325080053a010BD00BFEC2801081C2901082C2901082DE9F0410E4617469846044628B94FF446
S325080053c0A0721449144800F0D5FD204601F084F9092805D040F241120E49104800F0CAFD6D
S325080053e094F82E3033B94FF0FF3000F081FC0020BDE8F081656C35B143463A46314620461B
S32508005400A847BDE8F0816FF0050000F071FC0020BDE8F081FC2801081C2901082C290108A9
S325080054202DE9F0410E4617469846044628B940F267121449144800F09DFD204601F04CF9D3
S32508005440092805D04FF4B4720E49104800F092FD94F82E3033B94FF0FF3000F049FC002008
S32508005460BDE8F081A56C35B143463A4631462046A847BDE8F0816FF0050000F039FC00207D
S32508005480BDE8F0810C2901081C2901082C29010870B50D461646044628B94FF4C4720C4931
S325080054a00C4800F067FD204601F016F9092805D040F289120649084800F05CFDE36C23B1F2
S325080054c0324629462046984770BD6FF0050070BD102A01081C2901082C29010838B50D46A5
S325080054e0044628B94FF4D1720849094800F042FD204601F0F1F8092805D040F2A3120349A3
S32508005500044800F037FD2563002038BD242A01081C2901082C29010870B5FEF791FE04467A
S3250800552000F0DAFB48B1164D2946164800F0D6FC9B222946144800F01DFD2046FEF784FE3E
S32508005540124CFEF77DFE05462368A34202D1FEF77BFE70BD2368A3F128061A685968516005
S325080055605A68196811605B601B60586900F0DCFE304601F06BF82846FEF766FEE1E700BF90
S32508005580402A0108582A01080C2F0108EC25002038B5064C04F1100554F8043B03B1984723
S325080055a0AC42F9D1FFF7B8FFF3E700BF900D002010B58CB000220C4904A800F05DFC0B4C5E
S325080055c0202303931F2302934FF480630193084B00930023074A04A9204601F017FB20467D
S325080055e001F054FD0CB010BD802A0108E80800209009002091550008F8B50F4615461E46A7
S32508005600044620B9D2220C490C4800F0B3FCB5F5803F04D3D3220849094800F0ABFC3A462F
S325080056200221204600F046FF04F12803E362A3622586E6770020F8BD882A0108C42A0108A5
S32508005640D42A01082DE9F04105460C461746FEF7F7FD064600F040FB58B1DFF85480414659
S32508005660114800F03BFC40F20F1241460F4800F081FC3046FEF7E8FDB4F5803F05D34FF42B
S3250800568088720B490B4800F075FC2946022000F089FF034628B100F12802C2628262048622
S325080056a0C7771846BDE8F081582A01080C2F0108B42A0108D42A01082DE9F04182B0019162
S325080056c0044628B94FF4A8725549564800F052FC204601F001F8022805D040F2511250493D
S325080056e0514800F047FC514B1B680BB120469847FEF7A6FD0746238E23B1013B2386FEF76C
S32508005700A3FD77E0019B23B9FEF79EFD6FF0010082E0FEF795FD054601F0AAFA50B9404EBC
S325080057203146434800F0DAFB40F271123146414800F020FCFEF784FD064600F0CDFA58B151
S32508005740DFF8DC8041463C4800F0C8FB40F271124146384800F00EFC3046FEF775FD284649
S32508005760FEF772FD01F084FA05460023436404F1280694F81F8001F049FBB8F1000F03D025
S32508005780B8F1010F09D021E005F12803E26A1360E26AEA62E362AE6218E0A36A9E420DD0D9
S325080057a095F8491093F821208A4204D92BE093F821208A4227D81B689E42F8D105F1280391
S325080057c0E26A1360E26AEA62E362AE62019B002B09DD05F1600601AA0021304601F02EFEA7
S325080057e0304601F05FFD3846FEF72EFD01F06EF8686C88B9114B1B681BB1204698470020BE
S325080058000AE0002008E005F1280259680A605968E9625A60AB62D9E702B0BDE8F08100BF23
S32508005820A82A0108C42A0108E82A0108E02400209C2B01080C2F0108582A0108DC2400208A
S3250800584038B5044628B940F2BD121C491C4800F091FB204600F040FF022805D04FF4DF72B4
S325080058601649184800F086FB174B1B680BB120469847FEF7E5FC0546234653F8280F98421E
S3250800588009D0283801F0BCFB2846FEF7DDFC01F01DF8002038BD238E4FF6FF72934206D0B0
S325080058a0013323862846FEF7CFFC002038BD2846FEF7CAFC6FF0020038BD00BF102F010834
S325080058c0C42A0108E82A0108D8240020F8B504460E46FEF7B5FC054600F0FEF950B1124F07
S325080058e03946124800F0FAFA40F262223946104800F040FB2846FEF7A7FC2146032000F0A5
S3250800590051FE034668B100F12802C26282620122028600224263FF2180F8321080F833208E
S32508005920C6771846F8BD00BF202F0108582A01080C2F01082DE9F04182B004460191FEF7D9
S325080059407FFC054601F094F950B96E4E31466E4800F0C4FA4FF4297231466C4800F00AFB57
S32508005960FEF76EFC064600F0B7F950B1654F3946674800F0B3FA4FF429723946634800F056
S32508005980F9FA3046FEF760FC2846FEF75DFC2CB940F2A7225B495F4800F0ECFA204600F02C
S325080059a09BFE032805D04FF42A7256495A4800F0E1FA01F05DF90546FEF742FC0646574BA2
S325080059c01B680BB12046984700236B64606B85420DD194F83330FF2B03D0013384F83330D4
S325080059e078E03046FEF730FC6FF0020087E0238EA3B1013B2386656395F8493084F832304C
S32508005a0094F83330FF2B03D0013384F8333061E03046FEF719FC6FF0020070E0019B3BB977
S32508005a206FF001046C643046FEF70EFC204666E095F8492090F849309A4204D205F1490219
S32508005a40022101F061FB04F1280794F81F80284601F0DCF9B8F1000F03D0B8F1010F09D028
S32508005a6021E005F12803E26A1360E26AEA62E362AF6218E0A36A9F420DD095F8491093F815
S32508005a8021208A4204D931E093F821208A422DD81B689F42F8D105F12803E26A1360E26A07
S32508005aa0EA62E362AF62019B002B09DD05F1600701AA0021384601F0C1FC384601F0F2FBD8
S32508005ac03046FEF7C1FB00F001FF686CB8B9FEF7B7FB06463046FEF7B7FB114B1B681BB1A1
S32508005ae02046984700200AE0002008E005F1280259680A605968E9625A60AB62D3E702B0B7
S32508005b00BDE8F081302F01089C2B01080C2F0108582A0108D42B0108E82B0108E024002012
S32508005b20DC240020F8B5044628B940F241324D494D4800F01FFA204600F0CEFD032805D065
S32508005b4040F242324749494800F014FAFEF778FB054601F08DF850B9424E3146444800F0BD
S32508005b60BDF940F247323146424800F003FAFEF767FB064600F0B0F850B13A4F39463E48FE
S32508005b8000F0ACF940F2473239463A4800F0F2F93046FEF759FB2846FEF756FB01F068F817
S32508005ba00546FEF74DFB0646344B1B680BB120469847636B9D4207D04FF0FF346C643046C4
S32508005bc0FEF742FB2046F8BD94F83330013BDBB284F83330002B40D194F8322095F84930B3
S32508005be09A4205D004F132020221284601F08CFA234653F8282F9A421CD0A2F12800606364
S32508005c0092F8213084F8323094F83330FF2B0BD0013384F8333001F0F3F93046FEF714FB5F
S32508005c2000F054FE0020F8BD3046FEF70DFB6FF00200F8BD238E4FF6FF72934207D001336F
S32508005c40238600236363FF2384F8323005E03046FEF7FAFA6FF00200F8BD3046FEF7F4FAF1
S32508005c600020F8BD942A0108D42B0108E82B01089C2B01080C2F0108582A0108D82400209B
S32508005c8010B5FEF7DDFA0446064A13780133DBB21370054B1B6803B198472046FEF7D4FA6D
S32508005ca010BD00BFA80D0020A40D002010B5FEF7C7FA0446064A1378013BDBB21370054B68
S32508005cc01B6803B198472046FEF7BEFA10BD00BFA80D0020A00D002010B5FEF7B1FA034BAC
S32508005ce01C78E4B2FEF7B0FA204610BDA80D002010B50446FFF7F0FF10B1054B1C6010BD77
S32508005d0000F0B6FF10B9024B1C6010BD446410BDAC11002070B4032A33D910F0030F32D1AD
S32508005d20CCB244EA042444EA04440F2A19D900F11003154643F8104C43F80C4C43F8084CC8
S32508005d4043F8044C103D10330F2DF3D8A2F1100323F00F031033034402F00F02032A01D8B5
S32508005d6012E003461E46154646F8044B043D032DFAD8141F24F003040434234402F0030267
S32508005d8002E0034600E0034622B11A4403F8011B9A42FBD170BC704710B4884201D86AB944
S32508005da014E08B189842FAD281187AB19A1A13F8014D01F8014D9A42F9D107E0431E0A4444
S32508005dc011F8014B03F8014F8A42F9D110BC70479AB110B41346024611F8014B02F8014BB1
S32508005de044B9013B08D01344002102F8011B9342FBD101E0013BEFD110BC7047BAB130B4A6
S32508005e00144605784B1C0A78AA1A52B28AB995B10546214407E015F8014F13F8010B201A1E
S32508005e2040B248B944B19942F5D1104604E000207047104600E0104630BC7047037883B1DC
S32508005e400A789A420DD110B44A1C114610F8013F1BB101320C789C42F7D00878181A10BC89
S32508005e6070470878181A704708B513460A464FF0FF3104F0E3FD08BD0EB400B582B003AA30
S32508005e8052F8041B0192FFF7EFFF02B05DF804EB03B07047014B1868704700BFB011002091
S32508005ea038B50C4B1C68FFF7C3F984420ED0054670B1084B186808B1FFF742FA43212846BA
S32508005ec0FFF7D6F9034B1D60204638BD002038BD204638BDB0110020704700BF0FB410B57A
S32508005ee082B004AB53F8042B019340F2FF310F4804F0A4FD40F2FF33834228BF03460C4AA8
S32508005f00106818B90948FFF7E7FF0AE0848D44F040028285054A0021FFF782FA044B1B68D1
S32508005f209C8502B0BDE8104004B07047AC0D0020B011002000B583B00948FFF7CFFF094818
S32508005f40FFF7CCFF084B00930323002204210748FFF7C4FF0648FFF7C1FF03B05DF804FB0C
S32508005f60402F01084C2F0108902F0108702F01089C2F010810B582B000238DF80730094BA9
S32508005f801C685CB913460A4601460748FFF7A6FF9DF8073013F0FF0FFAD000E0A04702B060
S32508005fa010BD00BFD4240020C82F010808B5084B19680848FFF792FF074B19680748FFF7AF
S32508005fc08DFF074B19680748FFF788FF08BD00BFF011002038300108EC1100204C300108D0
S32508005fe0F81100206030010810B50446214B1B68834204D9A12220492048FFF7BBFF204B82
S325080060001B689C4204D3A2221B491E48FFF7B2FF638823B1A32218491B48FFF7ABFF154BBD
S325080060201A68636813449C4211D0598879B9144909688B420BD0154909688B4204BF1349AB
S325080060400C60596861605B681344A11A9960A16853189C420CD0588850B90C4800688442DD
S3250800606004BF0A4803606068586063681A44916010BD00BF041200202C3001088030010820
S32508006080F4110020A0300108CC300108B41100202DE9F04106460D4621F00304FEF7D0F84F
S325080060a00746FFF719FE50B1DFF89C8041461D48FFF714FFD22241461B48FFF75BFF3846E3
S325080060c0FEF7C2F8182C26D9F21C22F00302A4F118039A421FD8A41AA4F11801134B1960D5
S325080060e0134D2A604FF4F55010800C3C546000239360538011190F4E3160105301224A8043
S325080061004C608C600C490D48FFF776FA2A680C4B1A60BDE8F0812A4631460A48FFF7DEFE45
S32508006120BDE8F081582A01080C2F0108F011002004120020F4110020DC300108B8110020F2
S32508006140B4110020E4300108F4320108002800F0BB80F8B50546FEF773F80446FFF7BCFD5C
S3250800616050B15C4E31465C48FFF7B8FE4FF48C7231465A48FFF7FEFE2046FEF765F8033563
S3250800618025F00305564B1B689D4200F29F800B2D98BF0C254FF0FF315248FFF78DFA524BDD
S325080061a01F68524B1B68DB1B4D4A1668711B8B4280F08580FC186288002A7CD16268D21A26
S325080061c0A2F10C00854276D805F11801884220D305F10C021A44B9184FF4F550B85200204C
S325080061e04880606848608B606260012363804B680C36B3421CBFDB199A603D4A13680C33B1
S325080062002B4413603B4A126893420ED9394A13600BE00123638036490B681A440A60354BB1
S325080062201B689A4284BF334B1A604FF4F55323802E4B1B689C4212D15A8882B12E4A1168C5
S3250800624099420CD0284A10685B6803445A8812B9264A136003E09942F6D1244A1360214826
S32508006260FFF7EEFA05F10C032344234A12689A4205D24FF4C37217492048FFF77BFE04F188
S325080062800C0616F0030F05D040F2871211491C48FFF770FE14F0030F05D04FF4C4720D494A
S325080062a01848FFF767FE184B1B688BB12946304698473046F8BD63688B42FFF47BAF0948FE
S325080062c0FFF7BEFA0020F8BD002070470020F8BD3046F8BDE0320108582A01080C2F01086C
S325080062e0F0110020B811002004120020B4110020EC110020F8110020F411002020310108A6
S3250800630064310108B03101080012002038B501FB00F52846FFF71AFF044618B12A460021B6
S32508006320FFF7F8FC204638BD002800F08C8070B50446FDF785FF0546FFF7CEFC50B1424E63
S3250800634031464248FFF7CAFD40F22F2231464048FFF710FE2846FDF777FF14F0030F05D028
S3250800636040F2312238493B48FFF704FE3A4B1B689C4203D3394B1B689C425ED340F2332235
S3250800638031493748FFF7F6FD364B1B680BB120469847314B1B689C4254D3304B1B689C4228
S325080063a050D2A4F10C054FF0FF312F48FFF784F934F80A3C23B134F80C3CB3F5F55F1ED00A
S325080063c02A48FFF78BFD34F80C3C34F80A2C29462748FFF783FD34F80A3C2BB940F251229A
S325080063e019492448FFF7C6FD34F80C3CB3F5F55F05D040F2522214491F48FFF7BBFD002388
S3250800640024F80A3C4FF4F55324F80C3C1B4B1B689D423CBF194B1D6019490B6854F8082C24
S325080064209A1A0D4B1B68EB1A13440B602846FFF7DBFD0D48FFF704FA70BD0A4B1B68002B43
S32508006440A5D1AEE770BD7047EC320108582A01080C2F0108E031010804120020F4110020D4
S3250800646010320108FC110020B81100206C32010888320108B8320108C4320108B41100206C
S32508006480EC1100200A4B1B78834205D0084B0122197C814205D100E00022054800EB02105F
S325080064a0704701321033092AF2D10020704700BF000000202DE9F04F83B0054688460192C1
S325080064c00846FFF7DFFF074628B94FF49C721E491E48FFF74FFD00F0A9FA3E4656F8044F46
S325080064e0B44212D0DFF860B0DFF868A04FF4A479B4F1200306D0AB4204D14A46594650466B
S32508006500FFF738FD2468B442F2D100F09BFA68F07F0885F81E801E2201992846FFF758FCEC
S325080065200B4B1B680BB128469847FDF789FE05F120037A6853607A682A627B606E62FDF735
S3250800654083FE03B0BDE8F08F083301082C330108081200204433010810B5044628B940F24D
S3250800656075120D490D48FFF705FD0D4B1B680BB1204698470023A377FDF762FE04F120035E
S32508006580226A616A5160626A216A116063622362FDF75AFE10BD00BF183301085433010817
S325080065a00C120020F8B506460F46FDF749FE0446FFF792FB50B1204D29462048FFF78EFC74
S325080065c04FF4CC7229461E48FFF7D4FC2046FDF73BFE3046FFF756FF054628B94FF4CE728E
S325080065e015491848FFF7C6FCE868FFF7AFFD0446F8B1EA680021FFF78DFBA6770023E377A7
S325080066001E2239462046FFF7E3FB0F4B1B680BB120469847FDF714FE04F120036A685360F2
S325080066206A68226245F8043F6562FDF70DFE2046F8BD0020F8BD00BF94330108582A0108A6
S325080066400C2F01082C3301080812002010B5044628B94FF4EB7213491348FFF78BFC94F9F5
S325080066601E30002B05DA40F2D7120E490F48FFF781FC0F4B1B680BB1204698470023A3775D
S32508006680FDF7DEFD04F12003226A616A5160626A216A116063622362FDF7D6FD2046FFF7C8
S325080066a043FE10BDE833010854330108683301080C12002010B5044628B94FF4FC7204493A
S325080066c00448FFF757FC94F91E00C00F10BD00BFBC3301085433010810B5044628B940F267
S325080066e00B2204490448FFF745FCA07F00F07F0010BD00BFA833010854330108F8B5064608
S325080067000846FFF7BFFE7EB3054678B3FDF798FD0446FFF7E1FA50B1154F39461548FFF7E8
S32508006720DDFB4FF40A7239461348FFF723FC2046FDF78AFD00F07AF955F8044FAC420FD014
S325080067401E273A463146A4F12000FFF757FB20B9203C00F077F92046F8BD2468AC42F0D107
S3250800676000F070F90020F8BD0020F8BD0020F8BDD8330108582A01080C2F01080022084BDB
S325080067801A80084B03F580725B601B6008339342FAD10022044B1A60044B5B601B607047DC
S325080067a010120020E4240020E8250020EC25002010B5044628B940F2BF2218491848FFF749
S325080067c0D9FBFDF73DFD174B1B689C4208D194F8483023F0070343F0030384F8483019E0C6
S325080067e094F8483023F0070343F0010384F8483094F8491004F128020B4B03EBC103596872
S325080068000A605968E1625A60A362084AE16C13680B431360FDF718FD10BD00BF8034010810
S325080068201834010814120020E4240020E825002010B5044628B94FF4487211491148FFF7C4
S3250800684099FBFDF7FDFC04F12803A26AE16A5160E26AA16A1160E362A36294F849200A4B25
S3250800686003EBC20153F832308B4205D1074AE16C136823EA01031360FDF7E6FC10BD00BF0A
S325080068809C34010818340108E4240020E825002010B50B4B186801F009F90138094B53F801
S325080068a03040A4F12800084B1860FFF7C1FF032384F8203004F10800FDF7F7FC10BD00BFBA
S325080068c0E8250020E424002014120020F8B5FDF7B7FC05464A4BB3F90030002B40F08B8099
S325080068e0484B1868002800F0868001F0DFF80138454B53F83040283C444B1E6896F848308E
S3250800690003F00702032A17D196F8492082420AD30CD103F00807FFB2002F08BF3446003789
S3250800692018BF012703E03446002700E0012723F0080386F8483000E00027B4424ED0344B10
S325080069401870324B1C60334B1B6813B121463046984717B13046FFF72BFF2046FFF768FF06
S3250800696094F8483023F0070343F0030384F8483024B94F2228492948FFF7FCFAE36B1A78BF
S32508006980232A06D1226B9A4203D9216C19448A4207D921462248FFF7A1FAFDF751FC38B15E
S325080069a0FEE720339A4203D821461E48FFF796FA1D4B1B7813F0FF0F09D104F1300106F184
S325080069c03000FDF744FC2846FDF73EFCF8BD04F1300106F13000FDF73AFC0CE02046FFF735
S325080069e027FF0A4B1A6892F8483023F0070343F0030382F848302846FDF726FCF8BD00BF4A
S32508006a0010120020E8250020E424002014120020E425002018120020FC330108183401088B
S32508006a202C34010848340108A80D002008B5FDF707FC034A138801331380FDF705FC08BD68
S32508006a401012002008B5FDF7FBFB0A4A1388013B1BB21380002B0ADC0022064B1A80FDF7A2
S32508006a60F3FB054B1B6823B1FFF730FF08BDFDF7EBFB08BD101200201412002038B504462B
S32508006a80FDF7DEFB0546D4F8A0300BB1204698472846FDF7D9FB38BDF0B583B00446089846
S32508006aa009999DF828500B9E04F12807E762A7626263A363E06321640A462321FFF72AF9BA
S32508006ac0226C043AE16B174B0A44A16B606B00F027FE20631F2D04D9AF2213491348FFF7CA
S32508006ae049FA84F84A5084F849500023E364A665E665636484F84830C4F8A030C4F8A43083
S32508006b000193009323460A4A214604F1600000F051FB084B1B680BB120469847002003B0E1
S32508006b20F0BD00BFB16B0008D03601082C350108396B00082412002010B5044628B940F21A
S32508006b40613217491748FFF715FA94F8483003F00703022B05D040F2623211491248FFF75D
S32508006b6009FA2046FFF7B8FD012805D040F263320B490E48FFF7FEF96FF00103636404F178
S32508006b802803A26AE16A5160E26AA16A1160E362A3622046FFF70CFEFFF798FE10BD00BF24
S32508006ba00835010818340108503501088C35010838B5144B1C68FDF743FB05462046FFF72B
S32508006bc05DFF2046FFF734FE042384F8483004F1600000F013FB2046FFF76CFD012803D18D
S32508006be02046FFF7B9FC07E004F12802064B19684A60A1621A60E362FFF768FE2846FDF774
S32508006c0023FB38BD14120020EC2500202DE9F04184B00D46174698460A9E044628B94FF4BD
S32508006c20867210491048FFF7A5F92EB940F20D120C490E48FFF79EF92A4601212046FFF7AB
S32508006c4039FC0D9B03939DF8303002930B9B0193009643463A4629462046FFF71DFF04B0B5
S32508006c60BDE8F081E036010818340108D0350108014B1868704700BF1412002010B50446D7
S32508006c8028B940F26B1222492248FFF773F92046FFF722FD012805D04FF4B6721C491E4870
S32508006ca0FFF768F92046FFF705FD28B940F26D1217491A48FFF75EF994F8483003F007036F
S32508006cc0042B22D013B12046FFF7B2FD2046FFF7D5FE04F1600000F091FA042384F848309C
S32508006ce02046FFF7E7FC012803D12046FFF734FC0BE0FDF7A5FA04F12802094B19684A60A2
S32508006d00A1621A60E362FDF79FFA002010BD00BFB8340108183401088C350108E835010830
S32508006d20EC2500202DE9F04184B005460F4690461E4601460120FFF735FCC0B104463046FF
S32508006d40FFF704FA20B92046FFF780FC00200FE00B9A03929DF82820029201960090434616
S32508006d603A4629462046FFF797FE204600E0002004B0BDE8F08100BF10B5044628B94FF403
S32508006d80E9721D491D48FFF7F5F82046FFF7A4FC012805D040F2D31217491948FFF7EAF832
S32508006da02046FFF787FC28B14FF4EA7212491548FFF7E0F894F8483003F00703042B19D0CF
S32508006dc013B12046FFF734FD2046FFF757FE04F1600000F013FAFDF733FA042384F8483015
S32508006de004F12802084B19684A60A1621A60E362FDF72AFA002010BDF4340108183401089B
S32508006e008C35010818360108EC25002038B5044628B94FF4417224492448FFF7ABF820462C
S32508006e20FFF75AFC012805D040F205321E492048FFF7A0F894F8483003F00703012B2ED009
S32508006e40032B24D01EE040F2163217491948FFF791F82046FFF7ECFC94F8483023F00703E5
S32508006e6043F0020384F8483004F1600000F0AAFA2846FDF7E9F9104B1B6833B120469847A4
S32508006e80002038BD4FF0FF3038BD002038BDFDF7D7F90546094B1B689C42D4D1D9E7FDF73A
S32508006ea0CFF90546D5E700BF04370108183401088C350108543601081C12002014120020AC
S32508006ec070B582B00190194B1C682CB940F21A2217491848FFF74EF82046FFF7FDFB012808
S32508006ee005D040F21B2212491348FFF743F8FDF7A7F906462046FFF789FF04F1600501AA90
S32508006f000021284600F09AFA284600F0CBF93046FDF79AF9FFF7DAFC636C13F1020F04BFBE
S32508006f2000236364002002B070BD00BF141200201C350108183401088C35010808B5FFF729
S32508006f40BFFF08BD08B5FEF7E3F8FFF7B9FF08BDF8B50D46064628B940F24D2223492448FA
S32508006f60FFF708F8234B1C682CB940F251221F492148FEF7FFFF2046FFF7AEFB012805D0CA
S32508006f8040F2522219491D48FEF7F4FFFDF758F90746FEF79DF83368C01AA8421DD21D44C3
S32508006fa0FEF796F8281A30602046FFF72FFF04F1600532460021284600F040FA284600F0FB
S32508006fc071F93846FDF740F9FFF780FC636C13F1020F05D10023636402E03846FDF734F9F7
S32508006fe0FEF776F830600020F8BD00BFB83601087036010814120020183401088C350108F1
S3250800700038B5044628B94FF44D721C491C48FEF7B1FF2046FFF760FB012805D040F235328C
S3250800702016491848FEF7A6FF94F8483003F00703022B1DD1FDF704F9054604F12803A26A65
S32508007040E16A5160E26AA16A1160E362A36204F1600000F0B7F92846FDF7F6F82046FFF773
S32508007060A7FB094B1B6833B120469847002038BD4FF0FF3038BD002038BD00BFE0340108F7
S32508007080183401088C3501082012002010B5044628B94FF49F7217491748FEF76BFF94F883
S325080070a0483013F0070F05D040F23F1211491348FEF760FF2046FFF70FFB012805D04FF429
S325080070c0A0720C490E48FEF755FF94F84A2084F8492001239340E364022384F84830204604
S325080070e0FFF78EFF074B1B680BB1FFF7EFFB002010BD00BFF036010818340108803601089F
S325080071008C3501081412002070B50D461646044628B94FF4277224492448FEF72BFF204618
S32508007120FFF7DAFA012805D040F29D221E492048FEF720FF012D28D0022D01D095BB20E02F
S32508007140FDF77EF8054694F8483003F00703012B0CD12046FFF76CFB327884F849200123EC
S325080071609340E3642046FFF723FB05E0327884F8492001239340E3642846FDF765F80020DC
S3250800718070BD2046FFF782FF70BD2046FFF792FA012803D12046FFF771FD70BD2046FFF772
S325080071a0EBFD70BD002070BDCC340108183401088C350108F8B50F4616461D46044620B953
S325080071c0C9220C490C48FEF7D5FE3A460A212046FFF770F99DF81C3023F00103E3772663FA
S325080071e065630023E363069BA36304F12803E362A362F8BD2C3801082837010810B50446A6
S3250800720020B9DE2216491748FEF7B4FE2046FFF763FA0A2804D0DF2211491348FEF7AAFE10
S325080072202046FFF747FA20B9E0220D490F48FEF7A1FEFDF705F804F12803A26AE16A51606E
S32508007240E26AA16A1160E362A362E37F23F00103E377FCF7F9FF2046FFF77EF9002010BD90
S325080072603C380108283701083C3701087837010870B50E4615461C4601460A20FFF792F9BF
S32508007280034668B19DF8102022F00102C277066345630022C263846300F12802C262826209
S325080072a0184670BDF8B5044628B940F245123A493A48FEF75FFE2046FFF70EFA0A2805D012
S325080072c04FF4A37234493648FEF754FEFCF7B8FF064604F12805A36AE26A5A60E36AA26A82
S325080072e01A60E562A562E37F23F00103E3772D4B1B680BB120469847A26B2B4B9A4205D9AC
S3250800730040F2551224492948FEF734FEFDF7E0FEA36B1844E063E27F02F00402D3B2244AF6
S325080073202449002B18BF0A465768DFF87CE009E011684B69984204D01B1A734504D90A46B0
S3250800734000E00A469742F3D11B490B6801330B6013685D601368A3621560E262E37F43F0D6
S325080073600103E3773046FCF76FFFE37F13F0040F0FD0124B1B78012B0BD1114B93F848301C
S3250800738003F00703022B04D10D48FFF739FEFFF79DFA0020F8BD00BF18370108283701087D
S325080073a03C370108DC240020FEFFFF7FDC37010828120020341A0020E81A002090000020F2
S325080073c03C1A002010B5044628B940F2BB1217491748FEF7CFFD2046FFF77EF90A2805D0E0
S325080073e04FF4DE7211491348FEF7C4FDE37F13F0010F18D0104B1B680BB120469847FCF752
S325080074001FFF04F12803A26AE16A5160E26AA16A1160E362A362E37F23F00103E377FCF740
S3250800742013FF002010BD4FF0FF3010BD1C380108283701083C370108D824002070B50D462F
S325080074401646044628B940F2DF1219491948FEF791FD2046FFF740F90A2805D04FF4F072ED
S3250800746013491548FEF786FDFCF7EAFE042D1BD8DFE805F00603090E1300A36B336013E04B
S325080074803368A36310E0E37F23F00203E3770BE0E37F43F00203E37706E0E37F13F0010F3F
S325080074a014BF012300233360FCF7CEFE002070BD08380108283701083C3701082DE9F0478B
S325080074c082B0CDF800D0CDF804D0FDF701FE8246FCF7B6FE81462B4E2B4FDFF8B48047E0F0
S325080074e0A4F128056069C0EB0A00B84243D8D8F800300BB128469847236862685A60636846
S3250800750022681A606460246014F8093C13F0020F04BF23F0010304F8093C009B5C602360B7
S3250800752002AB43F8084D6360A368E0689847FDF7CFFD8246154B1B680BB128469847009AFD
S325080075406B469A4214D0236862685A60636822681A606460246014F8093C03F00302032A10
S3250800756006D123F0010304F8093C2846FFF79AFE3468B442B4D14846FCF766FE02B0BDE87F
S32508007580F08700BF28120020FEFFFF7F301A0020E41A00202DE9F04383B0CDF800D0CDF874
S325080075a004D0FCF74DFE0746304EDFF8CC80DFF8CC9051E0A4F12805FDF78AFD6369C01A76
S325080075c040454CD8D9F800300BB128469847236862685A60636822681A606460246014F8B8
S325080075e0093C13F0020F04BF23F0010304F8093C009B5C60236002AB43F8084D636000220D
S325080076001B4B1A703846FCF71FFEA368E0689847184B1B680BB128469847FCF711FE07466E
S325080076200122134B1A70009A6B469A4214D0236862685A60636822681A606460246014F8F4
S32508007640093C03F00302032A06D123F0010304F8093C2846FFF726FE3468B442AAD1384670
S32508007660FCF7F2FD03B0BDE8F08300BF341A002090000020301A0020FEFFFF7FE41A00206F
S3250800768070B5104D104EFCF7DBFD2B68AB4216D05C69FCF7D9FDB4F1FF3F06D1FFF7E8FAAB
S325080076a0FFF7B4FBFFF712F906E0FDF711FD201AB04201D8FFF742FCFFF76CFFE3E7FCF7D7
S325080076c0C3FDEBE7341A0020FEFFFF7F014B5B601B6070472812002010B584B00B4B5B6084
S325080076e01B600B4C0A230393042302934FF400630193084B00930023074A08492046FFF7EA
S3250800770085FA2046FFF7C2FC04B010BD341A00203C1A0020301200208176000800380108BB
S32508007720F0B40746043222F00702A2F14000A2F14404161F0C4D44F8045FB442FBD142F822
S32508007740201C002142F81C1C42F8181C42F8141C42F8101C42F80C3C42F8087C4FF080739C
S3250800776042F8043CF0BC7047EFBEADDE10B50446974B1B681BB19847002800F02781216C7A
S325080077809448FEF7ABFB616A9348FEF7A7FBA16A9248FEF7A3FBE16A9148FEF79FFB216B70
S325080077a09048FEF79BFB61688F48FEF797FBA1688E48FEF793FBE1688D48FEF78FFB2169A8
S325080077c08C48FEF78BFB61698B48FEF787FBA1698A48FEF783FBE1698948FEF77FFB216AD4
S325080077e08848FEF77BFB616B8748FEF777FBA16B8648FEF773FBE16B8548FEF76FFB2368FE
S3250800780013F0040F08D0FFF733FA01468148FEF765FB00F0BDF902E07F48FEF75FFB7F4B7C
S325080078201B6813F0020F02D07D48FEF757FB7B4B1B6813F0804F00F0C1807A4B1B7813F01E
S32508007840FF0F3CD07848FEF749FB764C21787748FEF744FB237813F0010F02D07448FEF788
S325080078603DFB704B1B7813F0020F02D07148FEF735FB6C4B1B7813F0040F02D06E48FEF7D3
S325080078802DFB684B1B7813F0080F02D06B48FEF725FB644B1B7813F0100F02D06848FEF7DD
S325080078a01DFB604B1B7813F0800F05D0654B19686548FEF713FB02E06448FEF70FFB644BE0
S325080078c01B7813F0FF0F34D06248FEF707FB604C21786148FEF702FB237813F0010F02D0F1
S325080078e05E48FEF7FBFA5A4B1B7813F0020F02D05B48FEF7F3FA564B1B7813F0080F02D027
S325080079005848FEF7EBFA524B1B7813F0100F02D05548FEF7E3FA4E4B1B7813F0800F05D0B9
S32508007920524B19685248FEF7D9FA02E04748FEF7D5FA504B1B889BB2002B3FD04E48FEF734
S32508007940CDFA4C4C218889B24C48FEF7C7FA238813F0010F02D04A48FEF7C0FA454B1B8888
S3250800796003F002039BB213B14648FEF7B7FA414B1B8803F004039BB213B14348FEF7AEFA5A
S325080079803C4B1B8803F008039BB213B13F48FEF7A5FA384B1B8803F480739BB213B13C48E0
S325080079a0FEF79CFA334B1B8803F400739BB213B13848FEF793FA2548FEF790FA174B1B68BF
S325080079c0002B02DA3448FEF789FAFEE710BD00BFEC1A00204C3801085C3801086C38010830
S325080079e07C3801088C3801089C380108AC380108BC380108CC380108DC380108EC380108D1
S32508007a00FC3801080C3901081C3901082C3901083C3901084C3901086C3901082CED00E04E
S32508007a208839010829ED00E0A0390108AC390108C4390108D0390108DC390108EC39010844
S32508007a40F839010838ED00E0003A01088439010828ED00E0103A0108243A01083C3A0108A2
S32508007a60483A0108543A0108603A010834ED00E06C3A01082AED00E07C3A01088C3A0108FE
S32508007a80A43A0108B03A0108BC3A0108C43A0108CC3A0108D83A0108E43A0108014A024B0F
S32508007aa01A6070470400FA050CED00E090FAA0F3B3FA83F3002808BF4FF0FF33581C7047E0
S32508007ac00020704708B50248FEF708FA002008BDCC3E010808B50248FEF700FA002008BDF0
S32508007ae0E03E0108F8B50468A04210D00546084E084FA4F128013046FEF7F0F923689D4202
S32508007b0005D03846FEF7EAF92468A542F1D1F8BDE83E0108EC3E010808B5FEF70BFA002009
S32508007b2008BD00BFF8B500230B61CB68EBB104460E460B7ADBB10F68D8B924E0FCF784FB7B
S32508007b400020F8BD736800252468A74207D0013543F8044BF2689542F6D1154600E00024DF
S32508007b60FCF772FB35612046F8BD0020F8BD0020F8BDFCF765FB14F8023C23F08003327A5D
S32508007b809342DFD0DAE7FCF75BFB3C46DAE700BF2DE9F04FBBB00120FEF774FC0430359008
S32508007ba001238DF8DC302DAB36930823389300233993444A1E214448FEF790F91E24434DD3
S32508007bc02846FEF78BF9013CFAD14148FEF786F94FF00009DFF810B1DFF810A14F4635A9D0
S32508007be03846FFF79FFF0746399B002B64DD2CAE002556F8044FFCF723FB804614F8023C17
S32508007c0023F080039DF8DC20934202D0FCF71CFB4EE0A4F12009A822494603A80AF02FFD68
S32508007c204046FCF711FB94F8293000934B461E2211465046FEF752F994F8283003F007035A
S32508007c40012B03D12348FEF749F915E0022B03D12148FEF743F90FE01BB92048FEF73EF98D
S32508007c600AE0042B03D11E48FEF738F904E0032B02D11C48FEF732F9E1690B78232B05D123
S32508007c800B4613F8012F232AFBD000E00B46226A1144CB1A642000FB03FE2069636A0193D1
S32508007ca0E46B0094BEFBF2F3091A5846FEF716F90135399BAB429CDC002F90D100203BB066
S32508007cc0BDE8F08FF03E0108F83E0108C44F01083C3F0108883F0108943F0108A03F0108C8
S32508007ce0AC3F0108B83F0108C43F01087C3F01082DE9F8431248FEF7F1F8124B1C68124BEB
S32508007d001B689C4218D20C34DFF84080DFF840900D4F264654F80C5C0222414628460AF0FD
S32508007d20C1FC28B154F8082C29464846FEF7D6F80C343B68B342ECD80020BDE8F88300BFC4
S32508007d40EC3F0108F81A0020001B002000400108044001082DE9F04790B00A20FEF792FBA5
S32508007d6004300B900A238DF8343003AB0C9308230E9300230F932A4A1E212A48FEF7AEF872
S32508007d801E24294D2846FEF7A9F8013CFAD12748FEF7A4F80027DFF89CA0DFF89C80DFF80D
S32508007da09C900BA93846FFF7BDFE07460F9B002B2ADD02AE002556F8044FFCF741FA14F8CD
S32508007dc0023C23F080039DF83420934202D0FCF73BFA15E0FCF738FAE3690193A369009370
S32508007de0A4F120031E2211464046FEF777F814F8013C13F0010F14BF48465046FEF76EF88E
S32508007e0001350F9BAB42D6DC002FCAD1FDF760F901460748FEF762F8002010B0BDE8F087DD
S32508007e200038010814400108C44F01083C40010894400108844001086040010878400108E1
S32508007e402DE9F04790B00920FEF71CFB04300B9009238DF8343003AB0C9308230E93002332
S32508007e600F93254A1E212548FEF738F81E24244D2846FEF733F8013CFAD12248FEF72EF844
S32508007e800027DFF884A0DFF88490DFF884800BA93846FFF747FE07460F9B002B26DD02AEAA
S32508007ea0002456F8045FFCF7CBF915F8023C23F080039DF83420934202D0FCF7C5F911E015
S32508007ec0FCF7C2F9A5F120032A7A162A94BF59F822105146AA7B019200911E221146404676
S32508007ee0FDF7FCFF01340F9BA342DADC002FCED1002010B0BDE8F087B4400108BC4001083F
S32508007f00C44F0108E4400108AC40010804450108084101082DE9F04F93B00820FEF7B2FA10
S32508007f2004300D9008238DF83C3005AA0E92109300231193364A1E213648FDF7CFFF1E244C
S32508007f40354D2846FDF7CAFF013CFAD13348FDF7C5FF4FF00008DFF8C8A0DFF8C8B0DFF87F
S32508007f60C8900DA94046FFF7DDFD8046119B002B46DD04AF002657F8045FFCF761F915F8EA
S32508007f80023C23F080039DF83C20934202D0FCF75BF931E0FCF758F92C4654F8203FA342C9
S32508007fa01BD0002201321B68A342FBD1002A15DD0392EB690293AB6901932B690093A5F140
S32508007fc020031E2211465046FDF788FF2046FFF789FD4846FDF782FF0EE000220392EB69EA
S32508007fe00293AB6901932B690093A5F120031E2211465846FDF772FF0136119BB342BADC4E
S32508008000B8F1000FADD1002013B0BDE8F08F00BF1C41010824410108C44F01084C410108D0
S32508008020704101088C410108843901082DE9F04F91B00620FEF726FA04300B9006238DF88E
S32508008040343003AB0C9308230E9300230F93364A1E213648FDF742FF1E24354D2846FDF738
S325080080603DFF013CFAD13348FDF738FF4FF00008DFF8C4A0DFF8C4B0DFF8C4900BA94046D6
S32508008080FFF750FD80460F9B002B45DD02AF002557F8046FFCF7D4F816F8023C23F0800399
S325080080a09DF83420934202D0FCF7CEF830E0FCF7CBF806F10804B268A24215D0A6F1200303
S325080080c0308B0021013112689442FBD1019100901E2211465046FDF701FF2046FFF702FDCA
S325080080e04846FDF7FBFE13E0A6F12003348B11688A4205D00020013009688A42FBD100E037
S325080081000020019000941E2211465846FDF7E6FE01350F9BAB42BBDCB8F1000FAED1002044
S3250800812011B0BDE8F08F00BFA8410108B4410108C44F0108D0410108E8410108FC410108EF
S32508008140843901082DE9F04F93B00520FEF79AF904300D9005238DF83C3005AB0E930823A0
S32508008160109300231193384A1E213848FDF7B6FE1E24374D2846FDF7B1FE013CFAD1354842
S32508008180FDF7ACFE4FF00008DFF8CCA0DFF8CCB0DFF8CC900DA94046FFF7C4FC8046119BBF
S325080081a0002B49DD04AF002657F8044FFCF748F814F8023C23F080039DF83C20934202D03A
S325080081c0FCF742F834E0FCF73FF804F10805A268AA4217D0A4F12003E08AA48A00210131A4
S325080081e012689542FBD10291019400901E2211465046FDF773FE2846FFF774FC4846FDF7B4
S325080082006DFE15E0A4F12003E58AA48A11688A4205D00020013009688A42FBD100E0002027
S325080082200290019400951E2211465846FDF756FE0136119BB342B7DCB8F1000FAAD1002039
S3250800824013B0BDE8F08F00BF1042010818420108C44F01083C4201085842010870420108AB
S32508008260843901082DE9F04393B00320FEF70AF904300D9003238DF83C3005AB0E9308231F
S325080082801093002311932B4A1E212B48FDF726FE1E242A4D2846FDF721FE013CFAD1284875
S325080082a0FDF71CFE4FF00009DFF898800DA94846FFF738FC8146119B002B34DD04AD002479
S325080082c01E2655F8047FFBF7BBFF17F8023C23F080039DF83C20934202D0FBF7B5FF1EE0B1
