S3150800000060100020B9010008C90F0008530B00084A
S31508000010C50F000899050008B5190008000000007A
S31508000020000000000000000000000000CB010008EE
S31508000030E905000800000000CF0100088116000845
S31508000040D3010008D3010008D3010008D301000832
S31508000050D3010008D3010008D3010008D301000822
S31508000060D3010008D3010008D3010008D301000812
S31508000070D3010008D3010008D3010008D301000802
S31508000080D3010008D3010008D3010008D3010008F2
S31508000090D3010008D3010008D3010008D3010008E2
S315080000A0D3010008D3010008D3010008D3010008D2
S315080000B0D3010008D3010008D3010008D3010008C2
S315080000C0D3010008D3010008D3010008D3010008B2
S315080000D0D3010008D3010008D3010008D3010008A2
S315080000E0D3010008D3010008D301000800F002F884
S315080000F000F043F80AA090E8000C82448344AAF171
S315080001000107DA4501D100F038F8AFF2090EBAE86E
S315080001100F0013F0010F18BFFB1A43F0010318472D
S315080001201C1F00003C1F0000103A24BF78C878C185
S31508000130FAD8520724BF30C830C144BF04680C60DF
S31508000140704700000023002400250026103A28BF27
S3150800015078C1FBD8520728BF30C148BF0B6070472B
S315080001601FB500F08DF904000020002101F050FFB2
S31508000170401C60601FBD10B510BD00F05CF911464B
S31508000180FFF7EEFF01F0AEFE00F08CF903B4FFF7BF
S31508000190F2FF03BC00F0D0F9EFF30980704780F353
S315080001A009887047EFF30880704780F3088870471E
S315080001B040BA7047C0BA704709488047094800479F
S315080001C0FEE7FEE7FEE7FEE7FEE7FEE7FEE7FEE7F9
S315080001D0FEE7FEE704480549054A064B7047000056
S315080001E0ED160008ED000008600A002060100020E7
S315080001F0600C0020600C002070B5064600F052F82E
S315080002000468054630460A22002100F04FF82C60A3
S3150800021070BD032A40F2308010F0030C00F0158000
S3150800022011F8013BBCF1020F624498BF11F801CBEB
S3150800023000F8013B38BF11F8013BA2F1040298BF50
S3150800024000F801CB38BF00F8013B11F0030300F0BA
S315080002506580083AC0F0088051F8043B083A51F81E
S3150800026004CBA0E80810F5E7121D5CBF51F8043B63
S3150800027040F8043BAFF30080D20724BF11F8013BD6
S3150800028011F801CB48BF11F8012B24BF00F8013B38
S3150800029000F801CB48BF00F8012B7047704770473C
S315080002A07047000000487047FC0900202DE9F04718
S315080002B091460F4680460446002614F8015B2DB188
S315080002C000F062F80068405DC007F6D12B2D02D019
S315080002D02D2D18D0641E4A463946204600F05CF893
S315080002E027B13968A14201D1C7F800804FF002044E
S315080002F071050BD54042002803DDFFF7D3FF0460E4
S31508000300A007BDE8F08746F48066E4E70028F8DA37
S31508000310FFF7C8FF04606FF00040F2E710B5203A17
S31508000320C0F00B80B1E81850203AA0E81850B1E8A0
S315080003301850A0E81850BFF4F5AF5FEA027C24BF56
S31508000340B1E81850A0E8185044BF18C918C0BDE84D
S3150800035010405FEA827C24BF51F8043B40F8043B16
S3150800036008BF7047D20728BF31F8023B48BF11F8CB
S31508000370012B28BF20F8023B48BF00F8012B704725
S3150800038000487047FC09002010B500F079F8001DF8
S3150800039010BD00BF7D1C00002DE9F05F82461546A2
S315080003A08B4600270AF10104B9460078302801D0A7
S315080003B09DB113E014F8010B0127782803D05828BB
S315080003C001D045B10AE00DB1102D07D1002714F868
S315080003D0010B102502E0082500E00A250026B04694
S315080003E00EE005FB080005FB06F101271FFA80F859
S315080003F001EB1046B6F5803F00D3B94614F8010B59
S31508000400294600F041F80028EBDABBF1000F05D0C9
S315080004100FB1641E00E05446CBF80040B9F1000F56
S3150800042006D0FFF73FFF02210160C81EBDE8F09F16
S3150800043048EA0640FAE77546FFF7A2FFAE4605000A
S315080004406946534620F00700854618B020B5FFF7E1
S31508000450C1FEBDE820404FF000064FF000074FF000
S3150800046000084FF0000B21F00701AC46ACE8C009C4
S31508000470ACE8C009ACE8C009ACE8C0098D467047CD
S31508000480004870471C0A00203A2800D2303820F06D
S315080004902002412A01D3A2F13700884201D34FF046
S315080004A0FF30704710B50446AFF300802046BDE81C
S315080004B01040FFF76BBE00004FF0013C50F8042BCC
S315080004C051F8043B9A4221D1A2EB0C03934313EA59
S315080004D0CC1317D150F8042B51F8043B9A4215D186
S315080004E0A2EB0C03934313EACC130BD150F8042B5D
S315080004F051F8043B9A4209D1A2EB0C03934313EA41
S31508000500CC13DBD04FF00000704700BFD01A01BAF9
S31508000510B1FA81F101F0180122FA01F0CB40C1F1DC
S315080005202001DBB2C0B2C01A2CFA01F3D11A9143EA
S3150800053011EAC311E6D1704701491820ABBEFEE7A0
S31508000540260002007047000010B502200649088000
S31508000550032088701020C870044800F010FA0221A1
S31508000560024800F0DFFA10BD00000020000C014030
S3150800057010B5012006490880032088701020C8702D
S31508000580044800F0FCF90121024800F0CBFA10BD3E
S3150800059000000020000C014000BFFEE7F0B505464C
S315080005A00E460024AF1905E015F8011BA0B201F0AC
S315080005B0E8F90446BD42F7D3A0B2002101F0E1F9FB
S315080005C004462046002101F0DCF904462046F0BD29
S315080005D021B1026842F00102026004E002684FF6A7
S315080005E0FE731A40026070477047014606E04FF4F2
S315080005F0FA5200E0521E002AFCDC491E0029F6DCED
S31508000600704700007FB505460E462AA207CA01AB09
S3150800061007C3002400200090294A3146284601F0E5
S31508000620F7F904462DB9002C03DC4FF4E03000F04E
S315080006306DFB002C15DD00F08EFA002000900122DB
S315080006406946204800F002FF00201F494871012C26
S315080006502EDD214601A801F0AFF901201A4948719B
S3150800066026E0601C18B902201749487120E0A01C32
S3150800067018B90320144948711AE0E01C18B9042077
S315080006801149487114E0201D18B905200E49487112
S315080006900EE0601D18B906200B49487108E0A01D38
S315080006A018B907200849487102E008200649487128
S315080006B07FBD0000202020202020202020200000B0
S315080006C064000020F0FF01081800002010B5402043
S315080006D006490880032088701020C870044800F076
S315080006E04EF94021024800F01FFA10BD0000002014
S315080006F0001001400149C860704700000020024010
S3150800070030B5A525042400F08FF800B100254FF474
S31508000710302000F021F90446042C3AD11E481F491E
S3150800072088601F4888600846006940F02000086114
S315080007300846006940F0400008614FF4302000F098
S315080007400BF90446042C1BD11448006941F6DF71E5
S315080007500840124908610846006940F0100008611F
S3150800076010480580E00200F0F7F80446052C10D082
S315080007700A48006941F6EF7108400849086108E02F
S31508000780052C06D00548006941F6EF710840034973
S315080007900861204630BD000023016745002002405D
S315080007A0AB89EFCD00F8FF1F30B5044604254FF49A
S315080007B0302000F0D1F80546042D17D10C48006901
S315080007C040F002000A49086108464461006940F0A1
S315080007D0400008614FF4302000F0BEF80546044892
S315080007E0006941F6FD71084001490861284630BD97
S315080007F00020024004200B49C96801F0010109B133
S3150800080001200EE00749C96801F0040109B1022078
S3150800081007E00449C96801F0100109B1032000E0A6
S31508000820042070470020024000200449C96901F0ED
S31508000830020109B1012000E00020704700200240B3
S315080008400148006A7047000000200240034800691A
S3150800085040F080000149086170470000002002400E
S315080008600549096821F01001034A11601146096813
S3150800087001431160704700000020024070B504462D
S315080008800D460426F00200F067F80646042E11D13C
S315080008900948006940F00100074908612580F0020F
S315080008A000F05AF806460448006941F6FE71084009
S315080008B001490861304670BD0020024078B50646F9
S315080008C00C46042500200090E80200F045F805468D
S315080008D0042D24D11348006940F00100114908612C
S315080008E03480E80200F038F80546042D10D1B01C13
S315080008F00090200C00990880E80200F02DF80546C3
S315080009000848006941F6FE7108400649086106E094
S315080009100448006941F6FE71084002490861284604
S3150800092078BD00000020024001460020034A1068F6
S3150800093000F03800084310607047000000200240AD
S3150800094002480349486003484860704723016745E1
S3150800095000200240AB89EFCD00B502460423FFF71D
S3150800096049FF034603E0FFF745FF0346521E012BE6
S3150800097001D1002AF7D102B90523184600BD2DE991
S31508000980F041024600250026002000230024002707
S3150800099091F803C00CF00F0591F803C00CF0100C89
S315080009A0BCF1000F03D091F802C04CEA050591F896
S315080009B000C0BCF1000F31D0146800202BE04FF0C6
S315080009C0010C0CFA00F3B1F800C00CEA03069E42CB
S315080009D020D183004FF00F0C0CFA03F7BC4305FA3D
S315080009E003FC4CEA040491F803C0BCF1280F06D1B5
S315080009F04FF0010C0CFA00FCC2F814C00AE091F89A
S31508000A0003C0BCF1480F05D14FF0010C0CFA00FCED
S31508000A10C2F810C0401C0828D1D31460B1F800C031
S31508000A20BCF1FF0F34DD546800202EE000F1080CFD
S31508000A304FF0010808FA0CF3B1F800C00CEA0306F7
S31508000A409E4221D183004FF00F0C0CFA03F7BC43EA
S31508000A5005FA03FC4CEA040491F803C0BCF1280F1C
S31508000A6005D100F1080C08FA0CF8C2F8148091F8C0
S31508000A7003C0BCF1480F07D100F1080C4FF001087C
S31508000A8008FA0CF8C2F81080401C0828CED3546027
S31508000A90BDE8F081F0B50A460023002400210025B0
S31508000AA000F00046B6F1004F02D11D4EF16901E093
S31508000AB01B4E7168C0F3034583B200F44016B6F5C1
S31508000AC0401F08D121F07061154E766826F07066D1
S31508000AD0134F7E6012E000F48016B6F5801F06D12B
S31508000AE0032606FA05F4A14341F0706106E0460DB7
S31508000AF0360103FA06F6B14341F0706122B1460D9C
S31508000B00360103FA06F6314300F00046B6F1004F07
S31508000B1002D1034EF16101E0014E7160F0BD0000A3
S31508000B2000000140416170470161704710B501211D
S31508000B304FF4FE7000F0F4FAFFF71AFDFFF704FD14
S31508000B40FFF7C4FD00F01EFE00F002FA00F024FADA
S31508000B5010BD00BFFEE770B500250024042501205E
S31508000B60A840401EC443FFF76BFE2040A04201D0B8
S31508000B70FFF7C6FD70BD00002DE9FF4706460D4686
S31508000B804FF0000858A103C9CDE9020158A103C9CD
S31508000B90CDE90001C1462878052873D2DFE800F0C0
S31508000BA0030A305A6700012028700621304601F0F2
S31508000BB091F993E000BF4FF400124F49304601F017
S31508000BC0E5F8B0B94C4800784D2816D101240AE05A
S31508000BD0494801194FF40012304601F0D7F800B120
S31508000BE003E0601CC4B2052CF2DB00BF02202870AB
S31508000BF004E042A1304600F01EF9DCE700BF6DE0D4
S31508000C00002413E03C48005D02A9095D884201D131
S31508000C10781CC7B23848005D1DF80410884203D115
S31508000C2008F1010000F0FF08601CC4B2052CE9DBDE
S31508000C30052F06D1032028701921304601F04AF9FC
S31508000C4007E0B8F1050F02D10420287001E0012061
S31508000C50287043E031460020FFF7D4FC00202870B6
S31508000C6001222849284800F0DDFB00F027FA00BFDA
S31508000C70B9F1000F07D0B9F1010F0FD0B9F1020F82
S31508000C8028D121E029E04FF0010900201D49C8704C
S31508000C90087140F6B830FFF7A8FC1CE01948C07880
S31508000CA0012803D017480079012806D14FF0020918
S31508000CB00621304601F00EF905E01521304601F00F
S31508000CC009F900F0FBF906E031460120FFF79AFC26
S31508000CD000F0F4F900BF00BFCAE700BF00BF00F08C
S31508000CE02BF9BDE8FF8700004D414A4F520000002E
S31508000CF04D494E4F520000003400002055504752CF
S31508000D000000000018000020F0FF01082DE9F0415E
S31508000D100446002500260427C4F3090020B1012053
S31508000D2000EB942086B201E0C4F38F26FFF708FE95
S31508000D303420FFF7DFFC002507E0094901EB852091
S31508000D40FFF732FD0746681C85B2B54201DA042F63
S31508000D50F3D00448FFF728FDFFF778FDBDE8F081DA
S31508000D600040000800FC01087FB505460C460094C3
S31508000D700020ADF80400ADF80600ADF80800ADF89F
S31508000D800C000C20ADF80A006946284600F084FDE0
S31508000D90002240F22551284600F059FD0121284637
S31508000DA000F0DAFC7FBD000038B5012000900E483F
S31508000DB000680E490840B0F1005F0BD10A48446844
S31508000DC00B48046008490868FFF7EFF90848006807
S31508000DD0804708E0FFF7BFFE012000900122694620
S31508000DE0044800F033FB38BD004000080000FE2F21
S31508000DF030000020F0FF010870B505460C4620219A
S31508000E00284600F017FD28B1284600F0B1FD2070ED
S31508000E10012070BD0020FCE770B504460D46294642
S31508000E20204600F0AAFD00BF8021204600F002FD02
S31508000E300028F9D070BD70B505460C4604E0217847
S31508000E402846FFF7E9FF641C20780028F7D170BD13
S31508000E5070B504460E4EFFF773FD3420FFF74AFCC3
S31508000E6000250FE0042202FB05602168FFF726FD36
S31508000E7056F825002168884202D04FF0FF3070BD31
S31508000E80241D6D1C042DEDD3FFF7E0FC0020F6E7CA
S31508000E9000FC010870B504460D46FFF751FD3420E5
S31508000EA0FFF728FC00202049086034E01F48216825
S31508000EB00068FFF703FD1E49206808601B480068A4
S31508000EC000681C490860194800680068216888425B
S31508000ED016D03420FFF70EFC14480068FFF764FCB0
S31508000EE01348016811480068FFF7E8FC0F480068D6
S31508000EF000680F490968884202D04FF0FF3070BD7C
S31508000F000A480068001D09490860241D064800684B
S31508000F10001D0549086004480068A842C6D3FFF7C3
S31508000F2095FC0020EBE700002000002024000020AC
S31508000F30280000202C00002010B500F001F810BD94
S31508000F404AF6AA20014908607047000000300040B0
S31508000F5010B50121084600F0E3F801210B48FFF718
S31508000F6099FD02200A490880032088701020C8705D
S31508000F700848FFF704FD10200549088003208870FB
S31508000F801020C8700348FFF7FAFC10BD00023000B5
S31508000F90000000200008014010B54FF40040074942
S31508000FA00880032088701020C8700548FFF7E7FC02
S31508000FB04FF400410248FFF7B7FD10BD00000020BE
S31508000FC00008014000BFFEE7704708B54FF44070BF
S31508000FD000F060F805208DF8010025208DF8000046
S31508000FE000208DF8020001208DF80300684600F005
S31508000FF019F827208DF8000000208DF8020001203E
S315080010008DF80300684600F00DF834208DF80000CE
S3150800101000208DF8020001208DF80300684600F0D4
S3150800102001F808BD70B5002100230F22C47804B367
S31508001030154C246804F4E064C4F5E064210AC1F19F
S315080010400403CA40447804FA03F18478144021431F
S3150800105009010E4C0678A155047804F01F050124F1
S31508001060AC4005786D11AD0005F1E025C5F80041E5
S3150800107009E0047804F01F050124AC40044D067805
S31508001080761145F8264070BD0CED00E000E400E05E
S3150800109080E100E002490143024A116070470000FE
S315080010A00000FA050CED00E0024A0A400243024B32
S315080010B01A60704780FFFF1F08ED00E006480068C9
S315080010C000F4E06005490843001D03490860BFF3C2
S315080010D04F8F00BFFEE700000CED00E00000FA05A8
S315080010E029B1064A52690243044B5A6104E0034A8D
S315080010F052698243014B5A61704700000010024052
S3150800110029B1064AD2690243044BDA6104E0034A6C
S31508001110D2698243014BDA61704700000010024031
S3150800112029B1064A92690243044B9A6104E0034ACC
S3150800113092698243014B9A61704700000010024091
S315080011402DE9F04100210022002500230026002475
S3150800115000278C46DFF86081D8F8048008F00C0177
S3150800116021B1042907D0082959D109E0DFF84C81B3
S31508001170C0F8008058E0DFF84481C0F8008053E0EA
S31508001180DFF83481D8F8048008F47012DFF8288173
S31508001190D8F8048008F48035920C0D2A01D0921CE8
S315080011A000E0062235B9DFF8188102FB08F8C0F816
S315080011B0008033E0DFF80081D8F82C8008F4803608
S315080011C0DFF8F480D8F82C8008F00F0808F101043D
S315080011D046B9DFF8E880B8FBF4F808FB02F8C0F86F
S315080011E000801BE0DFF8D080D8F82C80C8F30318FD
S315080011F008F10107DFF8C080D8F82C80C8F3032867
S3150800120008F1020CDFF8B480B8FBF7F808FB0CF815
S31508001210B8FBF4F808FB02F8C0F8008004E0DFF831
S315080012209C80C0F8008000BF00BFDFF88C80D8F82B
S31508001230048008F0F0010909DFF8888018F8013001
S31508001240D0F8008028FA03F8C0F80480DFF8688030
S31508001250D8F8048008F4E061090ADFF8688018F80D
S315080012600130D0F8048028FA03F8C0F80880DFF8BF
S315080012704880D8F8048008F46051C90ADFF8448029
S3150800128018F80130D0F8048028FA03F8C0F80C8062
S31508001290DFF82480D8F8048008F44041890BDFF889
S315080012A0288018F80130D0F80C80B8FBF3F8C0F89D
S315080012B01080BDE8F08100000010024000127A009C
S315080012C000093D00040000201400002010B5014666
S315080012D00022002300204A11012A02D1094C236862
S315080012E006E0022A02D1074C236A01E0054C636A2C
S315080012F001F01F02012494401C400CB1012000E0BB
S31508001300002010BD001002400248406800F00C00A2
S31508001310704700000010024001460020034A50684A
S3150800132020F0F000084350607047000000100240AB
S315080013301149096821F480310F4A1160114609687C
S3150800134021F480211160B0F5803F03D0B0F5802FDD
S315080013500ED106E00849096841F48031064A116051
S3150800136007E00549096841F4A021034A116000E035
S3150800137000BF00BF70470000001002400146002071
S31508001380034A506820F4E060084350607047000044
S315080013900010024001460020034A506820F46050BD
S315080013A040EAC100506070470010024001490866D3
S315080013B0704700000000424202460020044B58686D
S315080013C020F4741042EA01031843014B5860704731
S315080013D00010024001460020034A506820F003002E
S315080013E008435060704700000010024038B50020DE
S315080013F000900024002500BF3120FFF767FF05464F
S315080014000098401C00900098B0F5A06F01D0002D00
S31508001410F2D03120FFF75AFF08B1012400E000247A
S31508001420204638BD30B503460C461546002207E06F
S31508001430184600F008F824F812009B1C501C82B2CB
S31508001440AA42F5DB30BD0146088870472DE9F05FF2
S3150800145080468A461746B8F1006F02D3344880455D
S3150800146001D3BDE8F09FFFF76BFA3420FFF742F986
S31508001470A8F1006B4FEA9B25CBF34809C9F5007420
S31508001480A74200DC3C464DE04FF0006101EB8520A9
S315080014908A142849FFF7C6FF00260BE009EB060069
S315080014A0244931F810004FF6FF71884200D003E056
S315080014B0701C86B2A642F1DB00BFA6421BDA4FF0CB
S315080014C0006101EB8520FFF76FF9002608E03AF87E
S315080014D0160006EB0901174A22F81100701C86B29D
S315080014E0A642F4DB4FF0006101EB85208A1411490E
S315080014F000F022F804E022465146404600F01CF867
S31508001500A74200D10FE06D1C4FF000090AEB440A10
S31508001510A044381B87B2B7F5007F02DD4FF400748C
S3150800152000E03C46B0E700BFFFF790F900BF98E738
S3150800153000000208640400202DE9F04105460E4625
S315080015401746002407E036F814102846FFF796F9E0
S31508001550AD1C601C84B2BC42F5DBBDE8F08110B559
S3150800156000F002F810BD00000CB5002001900090B4
S315080015703F48006840F480303D49086000BF3C4859
S31508001580006800F4003000900198401C0190009813
S3150800159018B90198B0F5A06FF1D13548006800F484
S315080015A0003010B10120009001E000200090009862
S315080015B001285CD12F48006840F010002D490860CA
S315080015C00846006820F0030008600846006840F0F6
S315080015D00200086026484068254948600846406871
S315080015E048600846406840F4806048600846C06A1B
S315080015F0214908401E49C8620846C06A1F4908436F
S315080016001B49C8620846006840F08060086000BF51
S315080016101748006800F000600028F9D014484068B0
S3150800162020F47C10124948600846406840F4E810E7
S3150800163048600846006840F08070086000BF0C48A3
S31508001640006800F000700028F9D00948406820F0CA
S315080016500300074948600846406840F002004860B1
S3150800166000BF0348406800F00C000828F9D10CBDFB
S31508001670001002400020024000F0FEFF140801009E
S31508001680704710B54FF000610846FFF70DFD4FF49F
S315080016908030FFF74DFEFFF7A9FE0446012C24D142
S315080016A01020FFF7DDF80220FFF73EF90020FFF7CC
S315080016B033FE0020FFF76EFE0020FFF75FFE4FF4B3
S315080016C0E0112004FFF778FE0120FFF76FFE00BF48
S315080016D03920FFF7FBFD0028FAD00220FFF77AFE33
S315080016E000BFFFF711FE0828FBD110BD10B516483C
S315080016F0006840F00100144908600846406813492C
S3150800170008401149486008460068114908400E49D2
S3150800171008600846006820F480200860084640688B
S3150800172020F4FE0048600846006820F0A0500860D3
S315080017304FF47F0088600020C862FFF710FF4FF063
S3150800174000600449086010BD001002400000FFF068
S31508001750FFFFF6FE08ED00E021B1828942F400524F
S31508001760828104E082894DF6FF731A4082817047B0
S315080017701AB1838A0B43838202E0838A8B4383826E
S315080017807047000010B54FF4007026490880032002
S3150800179088701820C8702448FFF7F1F84FF4806065
S315080017A0204908800420C8701F48FFF7E8F804207D
S315080017B01C490880032088701820C8701A48FFF74B
S315080017C0DEF80820174908800420C8701648FFF775
S315080017D0D6F84FF4806013490880032088701820D3
S315080017E0C8701248FFF7CBF84FF400600D4908801F
S315080017F00420C8700D48FFF7C2F84FF48060094905
S315080018000880032088701820C8700948FFF7B7F8C1
S315080018104FF40060034908800420C8700448FFF7A5
S31508001820AEF810BD0000002000080140000C014081
S315080018300010014002460020B1F5007F00D100BF2C
S3150800184013880B400BB1012000E000207047F0B56B
S315080018500346002400260025002040F66A17B942F0
S3150800186000D100BF1846C1F3421401F01F06012734
S3150800187007FA06F5012C01D10C3004E0022C01D13F
S31508001880103000E014301AB107682F43076002E0F1
S315080018900768AF430760F0BD2DE9F04786B00546F7
S315080018A00E460024A24600BFA1460027B08900B113
S315080018B000BF2F462C8A4CF6FF700440F08804437C
S315080018C02C82AC894EF6F3100440B088318908435F
S315080018D0718908430443AC81AC8A4FF6FF40044043
S315080018E0B0890443AC8201A8FFF72AFC1F48874247
S315080018F002D1DDF810A001E0DDF80CA0A88900F4FB
S31508001900004040B10AEBCA0000EB0A1031684900F2
S31508001910B0FBF1F807E00AEBCA0000EB0A103168E1
S315080019208900B0FBF1F86420B8FBF0F00401200947
S31508001930642101FB1089A88900F4004040B13220D7
S3150800194000EBC900B0FBF1F000F00700044308E023
S31508001950322000EB09106421B0FBF1F000F00F0013
S3150800196004432C8106B0BDE8F0870000003801402A
S3150800197001468888C0F308007047C1F308028280D0
S31508001980704710B503460C46194644F4807200BFEA
S315080019904900520002F4807000B1491C01F48030FD
S315080019A010B141F22100414002F480300028EFD006
S315080019B088B210BD00BFFEE7F0B5144A0025002422
S315080019C0002320E0B1FBF2F6303606F0FF0C2E4677
S315080019D06D1C00F806C0B1FBF2F602FB16110A26CA
S315080019E0B2FBF6F26E1E865D302E01D1012600E0AE
S315080019F000260CB9012700E000273E400EB100255D
S31508001A0000E0641C5B1C0A2BDCD3F0BD00CA9A3BC1
S31508001A102DE9F04F89B004460F4615464FF0000BE6
S31508001A200020079006900590049003900290814646
S31508001A308046089000268246C448056080E14FF437
S31508001A400010C34BC34A39460090204600F0B2F94D
S31508001A500690FFF771FA069810B1012874D143E190
S31508001A604FF00008012C08D1029830B1B848006838
S31508001A70002802DD0520FEF7B8FDB5480068B0F17C
S31508001A80FF3F01D0E0B907E01821384600F022FAF6
S31508001A90002009B0BDE8F08F0621384600F01AFA92
S31508001AA04FF0010A00200290AB48006810B90120E7
S31508001AB0A9490860012C02D10520FEF796FD11E11F
S31508001AC0A4484078F1B2884206D01521384600F07D
S31508001AD001FA6FF00400DCE79D480068B0F5806FF6
S31508001AE00CDB4FF4806007909A4890F804049949F3
S31508001AF091F8031440EA012005900AE08020079037
S31508001B00944890F88400934991F8831040EA01209C
S31508001B1005909048C01C0799FEF740FD8346059836
S31508001B2083450AD01821384600F0D4F918213846DA
S31508001B3000F0D0F96FF00300ABE7002E7ED124B990
S31508001B4086A08949086005E0D9E0012C02D187A062
S31508001B50854908607F48C078002870D000208649EB
S31508001B6008607C48C01C8549086027E07E480068F4
S31508001B70007882490968097888420AD018213846C7
S31508001B8000F0A8F91821384600F0A4F96FF005000E
S31508001B907FE77A4800680178774802680068401C41
S31508001BA0754B18607648815474480068401C734920
S31508001BB008606D480068401C6B4908606F480068FB
S31508001BC0007818B16C480068FF28CFD900216A4808
S31508001BD002680068401C684B1860694881540020F8
S31508001BE01946086065480068401C644908600FE0AB
S31508001BF0624800680178604802680068401C5E4BCD
S31508001C001860604881545D480068401C5B4908605C
S31508001C105A4800680078202803D0574800681028DA
S31508001C20E6D30021544802680068401C524B1860ED
S31508001C3054488154FEF7E0FA474901E02AE021E0DA
S31508001C40086008460068B0F5003F0ADB18213846E8
S31508001C5000F040F91821384600F03CF94FF0FF3003
S31508001C6017E734B93C480068FFF750F83A48FFF7D9
S31508001C70EFF80621384600F02DF94321384600F0E2
S31508001C8029F92AE00621384600F024F94FF0010A1E
S31508001C90D14627E004BB2E482E49C91C02682B48AA
S31508001CA00068FEF7B6FA38480560294801683648DC
S31508001CB00068FFF7EFF850B11821384600F00AF926
S31508001CC01821384600F006F96FF00100E1E6062112
S31508001CD0384600F0FFF800E000BF701C86B201200D
S31508001CE0089000BF00BF23E01821384600F0F2F83C
S31508001CF01821384600F0EEF86FF00200C9E6089899
S31508001D00002803DD08F1010000F0FF08B8F1050F0F
S31508001D1009DD1821384600F0DDF81821384600F0AC
S31508001D20D9F80020B5E64321384600F0D3F800BFBD
S31508001D3000BFBAF1000F02D1B9F1000F00D000E0E0
S31508001D407DE600BF04480068A3E6000040000020C6
S31508001D504C00002064090020500000204D414A4FE5
S31508001D60522E62696E000000440000204D494E4F15
S31508001D70522E62696E000000540000203C000020CC
S31508001D8064080020E90900205800002070B50546BF
S31508001D900E46144607E031462846FFF72DF8012877
S31508001DA001D1002070BD201EA4F10104F3D1401E0C
S31508001DB0F8E700002DE9F84F8046894614461D4687
S31508001DC0DDF828B04FF0000A002028605A46694618
S31508001DD04846FFF7DBFF18B14FF0FF30BDE8F88F34
S31508001DE09DF80000182813D006DC012809D002281F
S31508001DF009D0042821D109E041281BD061281CD12B
S31508001E0019E080271CE04FF4806719E00020E5E719
S31508001E105A4669464846FFF7B9FF40B99DF800009B
S31508001E20182804D14FF0FF3028600020D6E74FF07D
S31508001E30FF30D3E700BF0120D0E74FF0FF30CDE7F2
S31508001E4000BF9DF80000207001262FE0A1195A4610
S31508001E504846FFF79BFF10B14FF0FF30BEE7B8F1D9
S31508001E60000F02D14FF0320A04E0B8F1010F01D198
S31508001E704FF0640A15480078401CC0B21349087030
S31508001E80504504D102211248FEF74EFE0CE04FEAF7
S31508001E904A000E490978884206D102210C48FEF705
S31508001EA041FE002009490870701C86B2781D8642DA
S31508001EB0CCDB6178A07880F0FF00814202D04FF039
S31508001EC0FF308BE72F60002088E7000060000020C5
S31508001ED00008014070B504460D4629462046FEF71F
S31508001EE09BFF70BD4FF44070FFF7D4F8FFF7C9FBAE
S31508001EF0FEF71CFE00F030F801211248FEF712FE2C
S31508001F0002211148FEF710FE10210F48FEF70AFEBF
S31508001F1001220E490E48FFF785FA11E00B480088A2
S31508001F20012806D100BF0949891C0A48FEF724FE84
S31508001F3006E072B6FEF738FF012004490880F2E78A
S31508001F40ECE70000000C01400008014018000020E2
S31508001F50F0FF01080044004010B5FFF736F80121EC
S31508001F604804FFF7CDF84FF416512348FEF7FCFE58
S31508001F7000212248FFF7F0FB00212148FFF7ECFB80
S31508001F8000212048FEF724FB002240F224411C4889
S31508001F90FFF75DFC002240211948FFF7E9FB002105
S31508001FA00120FFF79DF8002116482838FEF710FB98
S31508001FB0002240F224411448FFF749FC0022402140
S31508001FC01148FFF7D5FB00210120FFF789F800210A
S31508001FD00E48FEF7FDFA002240F224410748FFF7B3
S31508001FE036FC002240210548FFF7C2FB00210220EB
S31508001FF0FFF776F810BD000000440040004C004092
S3150800200000380140580002400048004030040240B1
S3150800201010B500290AD00878002807D00548784462
S31508002020FEF74AFA002801D0002010BD024878447D
S3150800203010BD00003E000000360000006C210008BC
S31508002040000000206400000028010008D0210008D4
S3150800205064000020FC0F0000440100081001000085
S3150800206043000000F8FFFFFF00404040404040406A
S31508002070404041414141414040404040404040404D
S3150800208040404040404040404005020202020202F1
S315080020900202020202020202022020202020202040
S315080020A02020200202020202020290909090909054
S315080020B01010101010101010101010101010101012
S315080020C01010101002020202020288888888888886
S315080020D00808080808080808080808080808080872
S315080020E0080808080202020240000000000000007A
S315080020F000000000000000000000000000000000D2
S3150800210000000000000000000000000000000000C1
S3150800211000000000000000000000000000000000B1
S3150800212000000000000000000000000000000000A1
S315080021300000000000000000000000000000000091
S315080021400000000000000000000000000000000081
S315080021500000000000000000000000000000000071
S315080021600000000000000000000000000000000061
S31508002170000000000102030401020304060708091F
S31508002180020406080000000000000000000000002D
S3150800219000400008000000000000000000000000E9
S315080021A00000000000000000000000000000000021
S315080021B00000000000000000000000000000000011
S315080021C00000000000000000000000000000000001
S705080000ED05
